:020000040800F2
:10000000A0040020892F0008993100089B310008C6
:100010009F310008A3310008A7310008000000004C
:10002000000000000000000000000000AB310008EC
:10003000AD31000800000000AF310008B131000808
:10004000A32F0008A32F0008A32F0008A32F000848
:10005000A32F0008A32F0008A32F0008A32F000838
:10006000A32F0008A32F0008A32F0008A32F000828
:10007000A32F0008A32F0008A32F0008A32F000818
:10008000A32F0008B9310008A32F0008A32F0008F0
:10009000A32F0008A32F0008A32F0008A32F0008F8
:1000A000A32F0008A32F0008A32F0008A32F0008E8
:1000B000A32F0008A32F000800000000A32F0008B2
:1000C000A32F00080000000000000000A32F00087C
:1000D00000000000A32F0008C53100080000000048
:1000E000A32F0008A32F0008A32F0008DFF80CD0CF
:1000F00003F06CF90048004711300008A00400200C
:100100000146002209B90120704791F8210010B979
:10011000002081F82000022081F821000868026890
:1001200043F6F0708243D1E901031843CB681843CA
:100130000B6918434B6918438B691843CB69184303
:1001400002430868026000204863012081F8210012
:100150000020D9E7014609B90120704791F8210034
:10016000022801D10120F8E70868006820F00100AA
:100170000A68106000200A6810600A6850600A6807
:1001800090600A68D060F74A0868904201D1022066
:1001900027E0F44A14320868904201D1202020E080
:1001A000F04A28320868904201D1401519E0ED4A22
:1001B0003C320868904202D14FF4005011E0E94A05
:1001C00050320868904202D14FF4003009E0E54A0D
:1001D00064320868904202D14FF4001001E04FF001
:1001E0000070E04A083A5060DE4A0868904201D147
:1001F000082027E0DB4A14320868904201D18020B1
:1002000020E0D84A28320868904201D1C01419E091
:10021000D44A3C320868904202D14FF4004011E0C9
:10022000D04A50320868904202D14FF4002009E0D1
:10023000CC4A64320868904202D14FF4000001E0D9
:100240004FF00060C74A083A5060C64A08689042BA
:1002500001D1042027E0C34A14320868904201D13A
:10026000402020E0BF4A28320868904201D10015A2
:1002700019E0BC4A3C320868904202D14FF48040F9
:1002800011E0B84A50320868904202D14FF4802001
:1002900009E0B44A64320868904202D14FF4800009
:1002A00001E04FF08060AF4A083A50600020486398
:1002B00081F8210000BF81F8200000BF00BF4CE79B
:1002C00010B5046863604468102C04D10468A2600F
:1002D0000468E16003E00468A1600468E26010BDA6
:1002E0002DE9F04104460D4616461F4600BF94F81E
:1002F0002000012802D10220BDE8F081012084F80D
:10030000200000BF022084F821002068006820F04F
:100310000100216808603B46324629462046FFF727
:10032000CFFF2068006840F00100216808600020CD
:10033000E2E72DE9F04104460D4616461F4600BF90
:1003400094F82000012802D10220BDE8F0810120AC
:1003500084F8200000BF022084F821002068006893
:1003600020F00100216808603B46324629462046BD
:10037000FFF7A6FF2068006840F0020021680860CF
:100380002068006840F00400216808602068006868
:1003900040F00800216808602068006840F0010013
:1003A000216808600020D0E770B504460025206869
:1003B000006820F001002168086000F065FB054638
:1003C00013E000F061FB401BB0F57A7F0DD9606B44
:1003D00040F020006063032084F8210000BF00206B
:1003E00084F8200000BF032070BD2068006800F082
:1003F00001000028E5D1012084F8210000BF002081
:1004000084F8200000BF00BFEEE72DE9F04104466C
:100410000E4615464FF000087EBB524920688842C0
:1004200001D1022027E04F4914312068884201D1D0
:10043000202020E04B4928312068884201D1401516
:1004400019E048493C312068884202D14FF40050FD
:1004500011E0444950312068884202D14FF4003005
:1004600009E0404964312068884202D14FF400100D
:1004700001E04FF0007007462FE0FFE739492068A0
:10048000884201D1042027E036491431206888428F
:1004900001D1402020E0334928312068884201D131
:1004A000001519E02F493C312068884202D14FF4F1
:1004B000804011E02B4950312068884202D14FF42E
:1004C000802009E0274964312068884202D14FF436
:1004D000800001E04FF08060074600F0D5FA8046CA
:1004E0008DE02048083800681E4A2168914201D1F9
:1004F000082127E01B4A14322168914201D1802152
:1005000020E0184A28322168914201D1C91419E02B
:10051000144A3C322168914202D14FF4004111E06B
:10052000104A50322168914202D14FF4002109E073
:100530000C4A64322168914202D14FF4000101E07B
:100540004FF000610840E0B306492068884201D1BD
:10055000082029E0034914312068884204D1802012
:1005600022E0000008000240F9492068884201D1D9
:10057000C01419E0F64914312068884202D14FF4C2
:10058000004011E0F24928312068884202D14FF43E
:10059000002009E0EE493C312068884202D14FF446
:1005A000000001E04FF00060E94930394860606BBD
:1005B00040F001006063042084F8210000BF0020A7
:1005C00000E005E084F8200000BF0120BDE8F081D4
:1005D000681CA0B12DB100F057FAA0EB0800A842AA
:1005E0000DD9606B40F020006063032084F8210087
:1005F00000BF002084F8200000BF0320E6E7D448B5
:1006000030380068384000283FF46BAFA6BBD049B3
:1006100028392068884201D1022026E0CC491439CB
:100620002068884201D120201FE0C9492068884203
:1006300001D1401519E0C64914312068884202D121
:100640004FF4005011E0C24928312068884202D19D
:100650004FF4003009E0BE493C312068884202D1A5
:100660004FF4001001E04FF00070B9493039486094
:10067000012084F8210034E0FFE7B54928392068DB
:10068000884201D1042026E0B1491439206888420B
:1006900001D140201FE0AE492068884201D10015F9
:1006A00019E0AB4914312068884202D14FF48040F0
:1006B00011E0A74928312068884202D14FF48020F8
:1006C00009E0A3493C312068884202D14FF4800000
:1006D00001E04FF080609E4930394860112084F875
:1006E000210000BF002084F8200000BF00BF6DE79C
:1006F00010B50446964830380068954A283A216873
:10070000914201D1082126E0914A143A2168914290
:1007100001D180211FE08E4A2168914201D1C91484
:1007200019E08B4A14322168914202D14FF4004102
:1007300011E0874A28322168914202D14FF400210A
:1007400009E0834A3C322168914202D14FF4000112
:1007500001E04FF00061084000284DD0206800689B
:10076000C0F3C00088B32068006820F0080021684A
:100770000860774928392068884201D1082027E09D
:10078000734914392068884201D1802020E07049E3
:100790002068884201D1C0141AE06D4914312068E4
:1007A000884202D14FF4004012E0694928312068A4
:1007B000884202D14FF400200AE065493C312068AC
:1007C000884203D14FF4000002E015E04FF00060D2
:1007D0005F4930394860606B40F00100606304207D
:1007E00084F8210000BF002084F8200000BF206BA7
:1007F00010B12046216B8847554830380068544A6C
:10080000283A2168914201D1042126E0504A143A45
:100810002168914201D140211FE04D4A2168914257
:1008200001D1091519E04A4A14322168914202D1D6
:100830004FF4804111E0464A28322168914202D1AA
:100840004FF4802109E0424A3C322168914202D1B2
:100850004FF4800101E04FF08061084098B32068B8
:100860000068C0F3800070B32068006800F02000CA
:1008700028B92068006820F0040021680860344925
:1008800028392068884201D1042027E030491439F2
:100890002068884201D1402020E02D49206888420C
:1008A00001D100151AE02A4914312068884202D18A
:1008B0004FF4804012E0264928312068884203D155
:1008C0004FF480200AE014E021493C31206888423E
:1008D00002D14FF4800001E04FF080601C493039B4
:1008E0004860112084F82100E06A10B12046E16AD6
:1008F0008847174830380068154A283A21689142DD
:1009000001D1022128E0124A143A2168914201D112
:10091000202121E00E4A2168914201D149151BE0B6
:100920000B4A14322168914202D14FF4005113E076
:10093000074A28322168914202D14FF400310BE07E
:10094000034A3C322168914204D14FF4001103E084
:10095000300002404FF00071084098B320680068F2
:10096000C0F3400070B32068006800F0200028B990
:100970002068006820F0020021680860244920688F
:10098000884201D1022028E02149143120688842A0
:1009900001D1202021E01E4928312068884201D160
:1009A00040151AE01A493C312068884202D14FF4C0
:1009B000005012E0164950312068884203D14FF4AC
:1009C00000300AE01BE0124964312068884202D1FD
:1009D0004FF4001001E04FF000700D4908394860F5
:1009E000606B6063012084F8210000BF002084F860
:1009F000200000BFA06A10B12046A16A884710BD40
:100A0000014691F8210070470146486B704700008D
:100A100008000240704770B5044601F0A6FA4FF492
:100A20007A71B0FBF1F5284600F02EF9002221463C
:100A3000501E00F0B3F8002070BD10B540480068AB
:100A400040F010003E490860032000F095F80F20A8
:100A5000FFF7E1FF00F038FC002010BD704710B533
:100A60004FF0FF303749C86000200861401EC86061
:100A70000020C86000F029FC002010BD324800684A
:100A8000401C3149086070472F480068704731B5F5
:100A90000024FFF7F9FF044600BFFFF7F5FF001B36
:100AA00000998842F9D338BD4FF0E020006920F06A
:100AB00002004FF0E021086170474FF0E02000692C
:100AC00040F002004FF0E021086170471F48704776
:100AD0001F4800681F4991FAA1F1B1FA81F1C8409D
:100AE00070471B480068C0F30B0070471848406807
:100AF00040F001001649486070471548406820F0F2
:100B000001001349486070471148406840F00200F6
:100B10000F49486070470E48406820F002000C49B9
:100B2000486070470A48406840F00400084948603F
:100B300070470748406820F0040005494860704746
:100B400000200240001002400000002000040001CC
:100B5000002004E00000FFFF10B5002807DA0A07B4
:100B6000140EA94A00F00F031B1FD45403E00A0718
:100B7000130EA64A135410BD00BF00F00702A24B8B
:100B80000C3B19684FF6FF031940A14B0B4343EA96
:100B900002219D4B0C3B196000BF70472DE9F05FAF
:100BA00080460D461646002700F027F907463946CD
:100BB0002A46334601F00700C0F1070ABAF1040FD4
:100BC00002D94FF0040A01E0C0F1070AD14600F152
:100BD000040ABAF1070F02D24FF0000A01E0A0F1B7
:100BE000030AD4464FF0010A0AFA09FAAAF1010AE7
:100BF0000AEA020A0AFA0CFA4FF0010B0BFA0CFB94
:100C0000ABF1010B0BEA030B4AEA0B042146404609
:100C1000FFF7A2FFBDE8F09F00BF00F01F02012117
:100C200091404209920002F1E022C2F8001100BF97
:100C3000704700BF00F01F0201219140754A43092F
:100C400042F8231000BF704700BF00BF00BF00BFC5
:100C500000BFBFF34F8F00BF00BF00BF6A480C3812
:100C6000006800F4E0606A490843001D66490C39D9
:100C7000086000BF00BF00BFBFF34F8F00BF00BFC1
:100C800000BF00BF00BFFDE770B504462546681EE3
:100C9000B0F1807F01D301200FE0681E4FF0E0210A
:100CA00048610F214FF0FF30FFF756FF00204FF053
:100CB000E021886107200861002070BD10B500F0B8
:100CC0009CF810BD2DE9F04304462046002808DAC0
:100CD0004D4F00F00F0CACF1040C17F80C703F09ED
:100CE00002E04A4F3F5C3F093D460E4606F00700D2
:100CF000C0F10708B8F1040F02D94FF0040801E071
:100D0000C0F10708C44600F10408B8F1070F02D289
:100D10004FF0000801E0A0F10308474625FA07F864
:100D20004FF0010909FA0CF9A9F1010908EA0908CB
:100D3000C2F800804FF0010808FA07F8A8F101088E
:100D400008EA0508C3F8008000BFBDE8F08300BFD3
:100D500000F01F02012191402E4A8032430942F8DF
:100D6000231000BF704710B501460846294A80325B
:100D7000430952F8232000F01F040123A3401A4026
:100D80000AB1012200E00022104610BD00BF00F0B1
:100D90001F0201219140204A430942F8231000BF5D
:100DA000704710B5014608461B4A8032430952F885
:100DB000232000F01F040123A3401A400AB101229E
:100DC00000E00022104610BD042808D14FF0E021B9
:100DD000096941F004014FF0E022116107E04FF092
:100DE000E021096921F004014FF0E0221161704710
:100DF000704710B5FFF7FCFF10BD03480C380068C2
:100E0000C0F302207047000018ED00E000E400E0AD
:100E10000000FA0580E100E080E200E02DE9F847FB
:100E200003460024002000258446002700226EE1AE
:100E30004FF0010808FA02F4D1F8008008EA040033
:100E4000A0427DD1DFF860A4D1F80480A8EB0A09A4
:100E5000D0453AD014DCB8F1030F50D009DCB8F11A
:100E6000000F31D0B8F1010F1CD0B8F1020F49D1F9
:100E700020E0B8F1110F18D0B8F1120F42D11EE0E6
:100E8000B9F5881F25D006DCB9F5803F20D0B9F52B
:100E9000801F37D11AE0B9F5001F18D0B9F5041F2B
:100EA00030D117E0D1F80CC02DE0D1F80C8008F15A
:100EB000040C28E0D1F80C8008F1080C23E0D1F8EC
:100EC0000C8008F10C0C1EE000BF00BF00BF00BF8B
:100ED00000BF00BFD1F80880B8F1000F02D14FF079
:100EE000040C0BE0D1F80880B8F1010F03D14FF0EA
:100EF000080C1C6102E04FF0080C5C6103E04FF04D
:100F0000000C00E000BF00BFFF2801D8984601E0B8
:100F100003F104084646FF2802D84FEA820803E09E
:100F2000A2F108084FEA88084746D6F800804FF03B
:100F30000F0909FA07F928EA09080CFA07F900E08D
:100F400088E048EA0908C6F80080D1F8048008F073
:100F50008058B8F1805F7DD100BFDFF85083D8F8AA
:100F6000188048F00108DFF84493C9F81880C84693
:100F7000D8F8188008F00108CDF8008000BF00BF45
:100F80004FEAB9384FEA920958F829504FEA827867
:100F90004FEA18794FF00F0808FA09F825EA080512
:100FA000DFF80C83434502D14FF0000816E0DFF86C
:100FB0000483434502D14FF001080FE0DFF8F882C7
:100FC000434502D14FF0020808E0DFF8F0824345C4
:100FD00002D14FF0030801E04FF004084FEA827994
:100FE0004FEA197908FA09F848EA0505DFF8D082CE
:100FF0004FEA920948F82950D1F8048008F4803863
:10100000B8F5803F0AD1DFF8BC82D8F8008048EA02
:101010000008DFF8B092C9F8008009E0DFF8A48288
:10102000D8F8008028EA0008DFF89892C9F8008014
:10103000D1F8048008F40038B8F5003F10D1DFF88B
:10104000848208F10408D8F8008048EA0008DFF834
:10105000749200E05AE009F10409C9F800800DE03B
:10106000DFF8608208F10408D8F8008028EA000858
:10107000DFF8509209F10409C9F80080D1F8048022
:1010800008F48018B8F5801F0ED1DFF8388208F117
:101090000808D8F8008048EA0008DFF8289209F12B
:1010A0000809C9F800800DE0DFF8188208F1080887
:1010B000D8F8008028EA0008DFF8089209F108094A
:1010C000C9F80080D1F8048008F40018B8F5001FB2
:1010D0000ED1DFF8F08108F10C08D8F8008048EA5A
:1010E0000008DFF8E09109F10C09C9F800800DE073
:1010F000DFF8D08108F10C08D8F8008028EA000851
:10110000DFF8C09109F10C09C9F80080521C102ABF
:10111000FFF48EAEBDE8F8872DE9F04102460B469C
:1011200000200021002400267FE00127874007EAF5
:101130000301002978D0FF2901D8174600E0171DC8
:101140003D46FF2901D8870002E0A0F10807BF0053
:101150003E462F684FF00F0C0CFA06FC27EA0C07EE
:101160004FF0040C0CFA06FC47EA0C072F60D76816
:101170008F43D760524F4FEA900C57F82C408707A7
:101180004FEA177C0F2707FA0CF73C40484FBA424A
:1011900001D100270FE0474FBA4201D101270AE0F1
:1011A000454FBA4201D1022705E0444FBA4201D16E
:1011B000032700E004274FEA807C4FEA1C7C07FAF3
:1011C0000CF7A74230D187074FEA177C0F2707FAA1
:1011D0000CF43B4F4FEA900C57F82C70A743DFF804
:1011E000E0C04FEA90084CF82870364F3F688F43B4
:1011F000DFF8D0C0CCF800700CF104073F688F43D3
:101200000CF1040CCCF800700CF104073F688F431C
:101210000CF1040CCCF800700CF104073F688F430C
:101220000CF1040CCCF80070401C23FA00F7002FDE
:101230007FF47BAFBDE8F081024693680B400BB1B1
:10124000012000E0002070470AB1016101E00B04B9
:1012500003617047C2684A40C260704708B50246E1
:101260004FF48030009000980843009000989061FF
:1012700091610098906190690090906900F48030CD
:1012800008B1002008BD0120FCE7704710B50446F6
:101290000C4814300068204028B10A48143004601B
:1012A0002046FFF7F2FF10BD0000111000100240B1
:1012B00000080140000C01400010014000140140F2
:1012C00008000140000401407047704770477047B4
:1012D000F948406820F00300F74948600846006874
:1012E000F6490840F44908600846006820F4802068
:1012F0000860002048600846006820F0F8001021CF
:10130000F82292FAA2F2B2FA82F291400843EA4934
:10131000086000208860EA48EA490860704738B5EC
:1013200004460025207800F0010000287ED0E24825
:10133000406800F00C0004280CD0DF48406800F042
:101340000C00082837D1DC48406800F48030B0F544
:10135000803F30D12020010391FAA1F1B1FA81F14F
:1013600008430121B1EB601F02D1D34800680FE0B0
:101370002020010391FAA1F1B1FA81F10843022181
:10138000B1EB601F02D1CC48006A01E0CA48406A54
:1013900020210A0392FAA2F2B2FA82F2114301F07A
:1013A0001F020121914008400028BFD0606800283A
:1013B0003CD1012038BD00BF6068B0F5803F06D148
:1013C000BD48006840F48030BB49086028E0606890
:1013D00058B9B948006820F48030B7490860084619
:1013E000006820F4802008601AE06068B0F5A02F43
:1013F0000BD1B148006840F48020AF49086008462E
:10140000006840F4803008600AE0AB48006820F4CF
:101410008030A94908600846006820F480200860F0
:1014200000BF6068C8B3FFF72FFB00E06DE0054622
:1014300006E0FFF729FB401B642801D90320B9E728
:101440002020010391FAA1F1B1FA81F108430121B1
:10145000B1EB601F02D1984800680FE02020010323
:1014600091FAA1F1B1FA81F108430221B1EB601FB9
:1014700002D19148006A01E08F48406A20210A03A6
:1014800092FAA2F2B2FA82F2114301F01F02012194
:10149000914008400028CCD037E0FFE7FFF7F4FA8E
:1014A000054606E0FFF7F0FA401B642801D9032047
:1014B00080E72020010391FAA1F1B1FA81F10843FC
:1014C0000121B1EB601F02D17B4800680FE02020B2
:1014D000010391FAA1F1B1FA81F108430221B1EBC4
:1014E000601F02D17448006A01E07348406A2021FD
:1014F0000A0392FAA2F2B2FA82F2114301F01F0239
:101500000121914008400028CCD1207800F0020051
:1015100002284ED16848406800F00C0050B166487F
:10152000406800F00C00082844D16348406800F48B
:10153000803078BB2020022191FAA1F1B1FA81F12B
:1015400008430121B1EB601F02D15B4800680FE046
:101550002020022191FAA1F1B1FA81F10843022180
:10156000B1EB601F02D15448006A01E05248406A62
:101570002021022292FAA2F2B2FA82F2114301F081
:101580001F0201219140084028B12069012802D0A2
:1015900001200FE70EE04848006820F0F800F8222C
:1015A00092FAA2F2B2FA82F261699140084342498A
:1015B00008609BE0206970B3012090FAA0F1B1FAB5
:1015C00081F1414A42F82100FFF75EFA054606E044
:1015D000FFF75AFA401B022801D90320EAE620202F
:1015E000022191FAA1F1B1FA81F108430121B1EB95
:1015F000601F02D13048006810E02020022191FADB
:10160000A1F1B1FA81F108430221B1EB601F03D1CE
:101610002948006A02E01EE02748406A2021022291
:1016200092FAA2F2B2FA82F2114301F01F020121F2
:10163000914008400028CBD01F48006820F0F800F7
:10164000F82292FAA2F2B2FA82F26169914008435A
:10165000194908604AE00020012191FAA1F1B1FA8C
:1016600081F1194A42F82100FFF70EFA054606E01B
:10167000FFF70AFA401B022801D903209AE620202E
:10168000022191FAA1F1B1FA81F108430121B1EBF4
:10169000601F02D1084800681AE02020022191FA58
:1016A000A1F1B1FA81F108430221B1EB601F0DD124
:1016B0000148006A0CE0000000100240FFFFF6FE47
:1016C00000127A001C00002000004242F548406AE7
:1016D0002021022292FAA2F2B2FA82F2114301F020
:1016E0001F020121914008400028C1D1207800F05C
:1016F0000800082846D1A06980B3012191FAA1F021
:10170000B0FA80F0E84A02EB8000C0F88014FFF7DE
:10171000BBF9054606E0FFF7B7F9401B022801D9DF
:10172000032047E66020022191FAA1F1B1FA81F18C
:1017300008430121B1EB601F02D1DA48006810E0D4
:101740006020022191FAA1F1B1FA81F1084302214E
:10175000B1EB601F03D1D348006A02E013E0D14827
:10176000406A6021022292FAA2F2B2FA82F2114396
:1017700001F01F020121914008400028CBD0012038
:10178000FFF785F941E00020012191FAA1F1B1FABA
:1017900081F1C54A02EB8101C1F88004FFF774F9B9
:1017A000054606E0FFF770F9401B022801D9032027
:1017B00000E66020022191FAA1F1B1FA81F108431B
:1017C0000121B1EB601F02D1B64800680FE0602034
:1017D000022191FAA1F1B1FA81F108430221B1EBA2
:1017E000601F02D1AF48006A01E0AE48406A602144
:1017F000022292FAA2F2B2FA82F2114301F01F021F
:101800000121914008400028CCD1207800F004004C
:10181000042875D100BFA348C06940F08050A14999
:10182000C8610846C06900F08050009000BF00BF4A
:101830009E48006840F480709C490860FFF724F9D6
:10184000054606E0FFF720F9401B642801D9032074
:10185000B0E59648006800F480700028F2D000BF20
:10186000E068012806D18F48006A40F001008D49E8
:10187000086227E0E06858B98A48006A20F0010051
:10188000884908620846006A20F00400086219E0EE
:10189000E06805280BD18348006A40F004008149C4
:1018A00008620846006A40F0010008620AE07D48CC
:1018B000006A20F001007B4908620846006A20F0B7
:1018C0000400086200BFE068D0B3FFF7DDF805460A
:1018D00008E0FFF7D9F8401B41F28831884201D96E
:1018E000032067E54020022191FAA1F1B1FA81F1CC
:1018F00008430121B1EB601F03D16A48006810E082
:1019000058E04020022191FAA1F1B1FA81F1084397
:101910000221B1EB601F02D16248006A01E0614818
:10192000406A4021022292FAA2F2B2FA82F21143F4
:1019300001F01F020121914008400028C9D039E080
:10194000FFE7FFF7A1F8054608E0FFF79DF8401B09
:1019500041F28831884201D903202BE54020022141
:1019600091FAA1F1B1FA81F108430121B1EB601FB5
:1019700002D14C4800680FE04020022191FAA1F109
:10198000B1FA81F108430221B1EB601F02D1454851
:10199000006A01E04348406A4021022292FAA2F222
:1019A000B2FA82F2114301F01F0201219140084076
:1019B0000028CAD1E069002873D03A48406800F096
:1019C0000C00082874D0E069022872D100204FF082
:1019D000807191FAA1F1B1FA81F1334A42F8210004
:1019E000FFF752F8054606E0FFF74EF8401B0228C5
:1019F00001D90320DEE42020010591FAA1F1B1FA1A
:101A000081F108430121B1EB601F02D12548006834
:101A10000FE02020010591FAA1F1B1FA81F108430C
:101A20000221B1EB601F02D11E48006A01E01D488F
:101A3000406A20210A0592FAA2F2B2FA82F2114318
:101A400001F01F020121914008400028CCD1206AFA
:101A5000B0F5803F07D11348406820F40030A168FA
:101A6000084310494860D4E9080108430D49496812
:101A700021F4741108430B4948600121080690FACB
:101A8000A0F0B0FA80F0084A42F82010FEF7FCFF00
:101A900005460FE0FEF7F8FF401B02280AD9032095
:101AA00088E478E0001002400000424200700040EC
:101AB0006FE02CE02020010591FAA1F1B1FA81F14B
:101AC00008430121B1EB601F02D1FA4800680FE022
:101AD0002020010591FAA1F1B1FA81F10843022118
:101AE000B1EB601F02D1F348006A01E0F148406A9F
:101AF00020210A0592FAA2F2B2FA82F2114301F011
:101B00001F020121914008400028C3D043E000207B
:101B10004FF0807191FAA1F1B1FA81F1E64A42F8F1
:101B20002100FEF7B1FF054606E0FEF7ADFF401BC2
:101B3000022801D903203DE42020010591FAA1F1FA
:101B4000B1FA81F108430121B1EB601F02D1D948FC
:101B500000680FE02020010591FAA1F1B1FA81F1AE
:101B600008430221B1EB601F02D1D248006A01E0B4
:101B7000D048406A20210A0592FAA2F2B2FA82F213
:101B8000114301F01F020121914008400028CCD1EF
:101B900001E001200EE400200CE4F0B585B00FF266
:101BA0001C3C9CE8E01001A8A0E8E010C7A52D6847
:101BB000009500210024002200230020BD4D69680B
:101BC00001F00C056DB3042D02D0082D28D101E0E1
:101BD000BF4828E001F470154FF4701696FAA6F687
:101BE000B6FA86F6F54001AE735D01F4803595B125
:101BF000B04D6D6805F400354FF4003696FAA6F640
:101C0000B6FA86F6F5401DF80540B14DB5FBF4F582
:101C100005FB03F202E0AF4D03FB05F2104602E0C4
:101C200000BFAB4800BF00BF05B0F0BD70B50446B3
:101C30000D460026A848006800F00700A8420ED212
:101C4000A548006820F007002843A349086008461B
:101C5000006800F00700A84201D0012070BD207884
:101C600000F00200022807D19248406820F0F000FE
:101C7000A16808438F494860207800F001000028DF
:101C80007CD0606801282DD12020010391FAA1F1B8
:101C9000B1FA81F108430121B1EB601F02D18548FF
:101CA00000680FE02020010391FAA1F1B1FA81F15F
:101CB00008430221B1EB601F02D17E48006A01E0B7
:101CC0007C48406A20210A0392FAA2F2B2FA82F218
:101CD000114301F01F02012191400840002860D10A
:101CE0000120BBE7606802282CD12020010591FA71
:101CF000A1F1B1FA81F108430121B1EB601F02D1DA
:101D00006C4800680FE02020010591FAA1F1B1FABA
:101D100081F108430221B1EB601F02D16548006ADE
:101D200001E06448406A20210A0592FAA2F2B2FA60
:101D300082F2114301F01F0201219140084078BB5B
:101D400001208BE72020022191FAA1F1B1FA81F163
:101D500008430121B1EB601F02D15648006810E032
:101D60002020022191FAA1F1B1FA81F10843022168
:101D7000B1EB601F03D14F48006A02E054E04D48C8
:101D8000406A2021022292FAA2F2B2FA82F21143B0
:101D900001F01F0201219140084008B901205DE7D0
:101DA000FFE74448406820F0030061680843414968
:101DB0004860FEF769FE06466068012810D108E019
:101DC000FEF762FE801B41F28831884201D9032070
:101DD00044E73848406800F00C000428F0D123E0C4
:101DE0006068022810D108E0FEF74EFE801B41F229
:101DF0008831884201D9032030E72E48406800F03E
:101E00000C000828F0D10FE008E0FEF73DFE801B33
:101E100041F28831884201D903201FE725484068F4
:101E200000F00C000028F0D12B48006800F00700FB
:101E3000A8420ED92848006820F007002843264908
:101E400008600846006800F00700A84201D00120A1
:101E500004E7207800F00400042807D11548406802
:101E600020F4E060E168084312494860207800F0FF
:101E70000800082808D10F48406820F46050216904
:101E800040EAC1000B494860FFF787FE09494968ED
:101E900001F0F001F02292FAA2F2B2FA82F2D140FD
:101EA0000E4A515CC8400E4908600F20FEF7B3FD92
:101EB0000020D3E600100240000042420203040565
:101EC000060708090A0B0C0D0E0F10100102000086
:101ED00000127A0000093D0000200240843500080D
:101EE0001C00002070B586B005460C461646002042
:101EF0000290039004900590022003900320059027
:101F0000002004904FF48070029000BF74488069F4
:101F100040F00400724988610846806900F00400BE
:101F2000019000BF00BF02A96E48FEF777FF6C4822
:101F3000406820F0E06020436949486006B070BD09
:101F40000120C10491FAA1F1B1FA81F1664A42F887
:101F50002100704700204FF4002191FAA1F1B1FA5D
:101F600081F1614A42F8210070476048006870477B
:101F700000B5FFF7FAFF5A49496801F4E0614FF4F0
:101F8000E06292FAA2F2B2FA82F2D140584A515C6F
:101F9000C84000BD00B5FFF7E8FF5149496801F4AA
:101FA00060514FF4605292FAA2F2B2FA82F2D1403A
:101FB0004F4A515CC84000BD0F2101604849096883
:101FC00001F48021B1F5802F03D14FF4A0214160AD
:101FD0000CE04349096801F48031B1F5803F03D139
:101FE0004FF48031416001E0002141603C49496883
:101FF00001F4003181603A49096801F0010111B131
:102000000121016101E0002101613549096801F008
:10201000F801F82292FAA2F2B2FA82F2D1404161BA
:102020002F49096A01F00401042902D10521C16088
:1020300009E02B49096A01F0010111B10121C160D8
:1020400001E00021C1602649496A01F0010111B196
:102050000121816101E0002181612149096801F0CC
:102060008071B1F1807F02D10221C16101E00121C3
:10207000C1611B49496801F480320262184949680C
:1020800001F47012426270470F220260144A5268D3
:1020900002F003024260124A526802F0F0028260CB
:1020A0000F4A526802F4E062C2600D4A526802F4BC
:1020B0006052D20802610F4A126802F007020A60F9
:1020C0007047704710B50648806800F0800080288F
:1020D00004D1FFF7F6FF80200149887210BD00008F
:1020E0000010024000080140000042421C00002095
:1020F00094350008002002402DE9F04104460025F7
:102100002068006920F44050E168084321680861B4
:102110002169A0680843616940EA01052068C06838
:1021200041F20C61884328432168C86020684069F7
:1021300020F44070A169084321684861FE49206885
:1021400088425CD1FFF726FF00EBC00101EB0010D5
:1021500061688900B0FBF1F6FFF71CFF00EBC001DE
:1021600001EB001061688900B0FBF1F06421B0FB65
:10217000F1F000EBC00101EB0010A6EB8000322172
:1021800001EB00106421B0FBF1F000F0F006FFF766
:1021900001FF00EBC00101EB001061688900B0FB9A
:1021A000F1F06421B0FBF1F006EB0016FFF7F2FE50
:1021B00000EBC00101EB001061688900B0FBF1F792
:1021C000FFF7E8FE00EBC00101EB00106168890039
:1021D000B0FBF1F06421B0FBF1F000EBC00101EBCA
:1021E0000010A7EB8000322101EB00106421B0FB4E
:1021F000F1F000F00F003044216888605BE0FFF7E9
:10220000B7FE00EBC00101EB001061688900B0FB74
:10221000F1F6FFF7ADFE00EBC00101EB00106168C5
:102220008900B0FBF1F06421B0FBF1F000EBC001DC
:1022300001EB0010A6EB8000322101EB00106421BD
:10224000B0FBF1F000F0F006FFF792FE00EBC001EA
:1022500001EB001061688900B0FBF1F06421B0FB74
:10226000F1F006EB0016FFF783FE00EBC00101EB77
:10227000001061688900B0FBF1F7FFF779FE00EB11
:10228000C00101EB001061688900B0FBF1F064212E
:10229000B0FBF1F000EBC00101EB0010A7EB8000F8
:1022A000322101EB00106421B0FBF1F000F00F00CF
:1022B000304421688860BDE8F081704710B504465D
:1022C0000CB9012010BDA06900B100E000BF94F876
:1022D000390028B9002084F83800204600F0F4FFC7
:1022E000022084F839002068C06820F4005021687A
:1022F000C8602046FFF700FF2068006920F4904086
:10230000216808612068406920F02A00216848613E
:102310002068C06840F400502168C8600020E06375
:10232000012084F839000020CCE710B504460CB930
:10233000012010BD94F8390028B9002084F8380035
:10234000204600F0C1FF022084F839002068C068F0
:1023500020F400502168C8602046FFF7CDFE2068B9
:10236000006920F49040216808612068406920F0ED
:102370002200216848612068406940F00800216817
:1023800048612068C06840F400502168C86000209F
:10239000E063012084F839000020CAE770B50446E4
:1023A0000D460CB9012070BD94F8390028B9002001
:1023B00084F83800204600F087FF022084F83900B6
:1023C0002068C06820F400502168C8602046FFF7EC
:1023D00093FE2068006920F400602168086120688D
:1023E000406920F02A00216848612068006940F4B3
:1023F0008040216808612068006920F0200028439F
:10240000216808612068C06840F400502168C860F5
:102410000020E063012084F839000020C3E770B594
:1024200004460D4616460CB9012070BD94F83900DB
:1024300028B9002084F83800204600F045FF02202B
:1024400084F839002068C06820F400502168C86012
:102450002046FFF751FE2068006920F49040216873
:1024600008612068406920F02A00216848612068DE
:10247000006920F00F002843216808612068C068C7
:1024800020F4006030432168C8602068C06840F4D0
:1024900000502168C8600020E063012084F8390002
:1024A0000020C2E7704710B504460CB9012010BDEA
:1024B000022084F839002068C06820F400502168A8
:1024C000C86000202168C8602168086121684861EF
:1024D000204600F038FF0020E06384F8390000BF98
:1024E00084F8380000BF00BFE1E72DE9F041044661
:1024F0000E4617461D464FF00008FEF7C5FA804607
:102500007FBB30E0681C68B32DB1FEF7BDFAA0EBCD
:102510000800A84227D92068C06820F08000216800
:10252000C8602068C06820F020002168C86020686A
:10253000C06820F4807001E0003801402168C86064
:102540002068406920F0010021684861012084F87A
:10255000390000BF002084F8380000BF0320BDE828
:10256000F0810BE0FFE7206800683040B04201D105
:10257000012000E000200028C4D035E02AE0681CDB
:1025800040B32DB1FEF780FAA0EB0800A84221D994
:102590002068C06820F080002168C8602068C0689A
:1025A00020F020002168C8602068C06820F4807096
:1025B0002168C8602068406920F0010021684861F6
:1025C000012084F8390000BF002084F8380000BFE3
:1025D0000320C4E7206800683040B04201D10120E8
:1025E00000E000200028CAD10020B8E72DE9F0471C
:1025F00004460D46164699464FF0000894F8398077
:10260000B8F1010F02D0B8F1220F65D105B116B9AA
:102610000120BDE8F08700BF94F83800012801D1FF
:102620000220F6E7012084F8380000BF0020E063B4
:1026300094F83900222803D1322084F8390002E0CE
:10264000122084F83900A684E68428E0E08C401E3D
:10265000E084A068B0F5805F14D14B460022802151
:102660002046FFF742FF08B10320D2E72F46388803
:10267000C0F3080021684860206908B9AD1C0EE06D
:102680006D1C0CE04B46002280212046FFF72DFFF9
:1026900008B10320BDE715F8010B21684860E08C04
:1026A0000028D3DC4B46002240212046FFF71DFFC7
:1026B00008B10320ADE794F83900322803D1222075
:1026C00084F8390002E0012084F8390000BF0020BE
:1026D00084F8380000BF9CE702209AE72DE9F04714
:1026E00004460D46164699464FF0000894F8398086
:1026F000B8F1010F02D0B8F1120F69D105B116B9C6
:102700000120BDE8F08700BF94F83800012801D10E
:102710000220F6E7012084F8380000BF0020E063C3
:1027200094F83900122803D1322084F8390002E0ED
:10273000222084F83900A685E68535E0E08D401E2C
:10274000E085A068B0F5805F18D14B4600222021BB
:102750002046FFF7CAFE08B10320D2E72F462069C2
:1027600030B920684068C0F308003880AD1C1BE019
:1027700020684068C0B238806D1C15E04B460022CE
:1027800020212046FFF7B1FE08B10320B9E72069F8
:1027900020B92068406805F8010B05E02068406812
:1027A00000F07F0005F8010BE08D0028C6DC94F8EE
:1027B0003900322803D1122084F8390002E00120C8
:1027C00084F8390000BF002084F8380000BF98E783
:1027D000022096E730B50346002493F83940012CD7
:1027E00001D0222C2BD101B10AB9012030BD00BF8C
:1027F00093F83800012801D10220F7E7012083F87F
:10280000380000BF19629A84DA840020D86393F8F4
:102810003900222803D1322083F8390002E0122047
:1028200083F8390000BF002083F8380000BF186823
:10283000C06840F080001D68E8600020D6E70220F4
:10284000D4E730B50346002493F83940012C01D079
:10285000122C37D101B10AB9012030BD00BF93F865
:102860003800012801D10220F7E7012083F8380061
:1028700000BF99629A85DA850020D86393F8390001
:10288000122803D1322083F8390002E0222083F895
:10289000390000BF002083F8380000BF1868C06806
:1028A00040F480701D68E8601868406940F00100DD
:1028B0001D6868611868C06840F020001D68E86005
:1028C0000020CAE70220C8E7704770B505466C6A69
:1028D0000020E085E084012084F83900E06B40F0BE
:1028E0001000E0632046FFF7EFFF70BD704770B542
:1028F0000446656A2846FFF7F9FF70BD704770B55A
:1029000005466C6A2868006800F0200070B9002055
:10291000E0842068406920F08000216848612068D8
:10292000C06840F040002168C86002E0204600F026
:10293000A6FB70BDF7B504461546002794F839701C
:10294000012F01D0222F41D1019800B10DB90120F2
:10295000FEBD00BF94F83800012801D10220F7E73E
:10296000012084F8380000BF01982062A584E58426
:102970000020E06394F83900222803D1322084F843
:10298000390002E0122084F83900FE48216B886289
:10299000FD48216BC862FD48216B086301AE2368C6
:1029A0001A1D31682B46206BFDF7C3FC6FF0400009
:1029B000216808602068406940F080002168486113
:1029C00000BF002084F8380000BFC1E70220BFE745
:1029D000704770B50446656A2846FFF7F9FF70BD79
:1029E000704770B505466C6A2868006800F02000E2
:1029F00090B90020E0852068406920F040002168FF
:102A0000486194F83900322803D1122084F8390043
:102A100002E0012084F839002046FFF7E1FF70BD95
:102A2000F7B504461546002794F83970012F01D0F8
:102A3000122F3CD1019800B10DB90120FEBD00BF9D
:102A400094F83800012801D10220F7E7012084F82A
:102A5000380000BF0198A062A5850020E06394F8CB
:102A60003900122803D1322084F8390002E02220F4
:102A700084F83900C648616B8862C648616BC862D9
:102A8000C248616B086301AE32682368191D2B468A
:102A9000606BFDF74EFC2068406940F04000216803
:102AA000486100BF002084F8380000BFC6E702205C
:102AB000C4E7014600BF91F83800012801D1022087
:102AC0007047012081F8380000BF91F839001228C2
:102AD00006D10868406920F080000A6850611CE057
:102AE00091F83900222806D10868406920F040009A
:102AF0000A68506111E091F83900322806D108685F
:102B0000406920F0C0000A68506106E000BF002064
:102B100081F8380000BF0120D2E700BF002081F813
:102B2000380000BF00BFCBE708B5014600BF91F8F1
:102B30003800012801D1022008BD012081F83800A9
:102B400000BF91F83900122806D10868406940F0AA
:102B500080000A6850612EE091F8390022280FD1D8
:102B600000BF08680068009008684068009000BFD7
:102B700000BF0868406940F040000A6850611AE0F0
:102B800091F8390032280FD100BF08680068009022
:102B900008684068009000BF00BF0868406940F0C6
:102BA000C0000A68506106E000BF002081F83800CC
:102BB00000BF0120C0E700BF002081F8380000BF3F
:102BC00000BFB9E710B504462068406920F0C00096
:102BD00021684861206B10B1206BFDF7E5FB606B4D
:102BE00010B1606BFDF7E0FB012084F83900002094
:102BF00010BD10B504462068C06820F04000216870
:102C0000C86094F83900322803D1222084F83900B2
:102C100002E0012084F83900204600F030FA00205C
:102C200010BD10B50146002391F83930122B01D0A8
:102C3000322B2CD18868B0F5805F0FD10A6A1088DA
:102C4000C0F308000C686060086918B9086A801C45
:102C5000086209E0086A401C086205E00C6A601C12
:102C6000086220780C686060C88C401E80B2C884FE
:102C700058B90868C06820F080000C68E0600868F7
:102C8000C06840F040000C68E060002010BD0220E9
:102C9000FCE770B50446002694F83960222E01D076
:102CA000322E52D1A068B0F5805F13D1A56A206999
:102CB00040B920684068C0F308002880A06A801CE2
:102CC000A06219E020684068C0B22880A06A401C59
:102CD000A06211E0206938B920684068C1B2A26AD8
:102CE000501CA062117007E02068406800F07F016E
:102CF000A26A501CA0621170E08D401E80B2E08577
:102D000008BB2068C06820F020002168C86094F8E3
:102D10003900322803D1122084F839000EE02068EF
:102D2000C06820F480702168C8602068406920F085
:102D3000010021684861012084F839002046FFF72E
:102D40004FFE002070BD0020FCE70220FAE7F8B536
:102D50000446002500262068006800F00105206870
:102D6000C06800F4807625B11EB1E06B40F0010030
:102D7000E06320680068C0F340052068406900F007
:102D8000010609E0FF280008EF280008CB2800080A
:102D9000E3290008D329000825B11EB1E06B40F0FB
:102DA0000400E06320680068C0F3800525B11EB10F
:102DB000E06B40F00200E06320680068C0F3C005EB
:102DC00025B11EB1E06B40F00800E06320680068A8
:102DD000C0F340152068C06800F020061DB116B190
:102DE0002046FFF756FF20680068C0F3C015206832
:102DF000C06800F080061DB116B12046FFF711FF34
:102E000020680068C0F380152068C06800F04006A4
:102E10001DB116B12046FFF7ECFEE06B70B100BFAC
:102E200020680068009020684068009000BF00BFE4
:102E3000012084F839002046FFF746FDF8BD014621
:102E400000BF91F83800012801D10220704701200D
:102E500081F8380000BF022081F839000868C06896
:102E600040F001000A68D060012081F8390000BFFD
:102E7000002081F8380000BF00BFE7E7014600BF2F
:102E800091F83800012801D102207047012081F813
:102E9000380000BF022081F839000868C06840F09F
:102EA00002000A68D060012081F8390000BF0020CC
:102EB00081F8380000BF00BFE7E7014600BF91F886
:102EC0003800012801D102207047012081F8380024
:102ED00000BF022081F839000868C06820F00200B5
:102EE0000A68D060012081F8390000BF002081F815
:102EF000380000BF00BFE7E7014600BF91F8380087
:102F0000012801D102207047012081F8380000BF5C
:102F1000022081F839000868C06820F00C0040F0F9
:102F200008000A68D060012081F8390000BF002045
:102F300081F8380000BF00BFE5E7014600BF91F807
:102F40003800012801D102207047012081F83800A3
:102F500000BF022081F839000868C06820F00C002A
:102F6000001D0A68D060012081F8390000BF0020F0
:102F700081F8380000BF00BFE6E7014691F839004C
:102F800070470146C86B70470648804706480047AF
:102F9000FEE7FEE7FEE7FEE7FEE7FEE7FEE7FEE709
:102FA000FEE7FEE7D5310008ED00000800BFFEE7B0
:102FB00000B58FB014210AA800F0E7F9282168466F
:102FC00000F0E3F90120009000040190002002903D
:102FD00002200790C10308914FF4E011099168465F
:102FE000FEF79DF908B100BFFEE70F200A9002200E
:102FF0000B9000200C900E904FF480600D900221F9
:103000000AA8FEF713FE08B100BFFEE70FB000BD2F
:10301000FDF713FDFFF7CCFF2A482B4908604FF45A
:10302000E1304860002128488160C1600161816110
:103030000C214161FFF742F908B1FFF7B7FF2348C0
:1030400000F0D6F922A000F0D3F91F4841682AA069
:1030500000F0CEF93348016833A000F0C9F900222E
:1030600011462620FDF79AFD2620FDF7D5FD1722F3
:10307000394801681448FFF7ADFB00BFFEE710B503
:10308000044636A000F0B4F910BD10B5044633A0D4
:1030900000F0AEF910BD10B5044635A000F0A8F957
:1030A00010BD10B5044637A000F0A2F910BD13B54D
:1030B0000C464FF6FF73012269460348FFF796FA64
:1030C00000981CBD00440040240000209C350008EE
:1030D0002A2A20546573742066696E697368656472
:1030E000207375636365737366756C6C792E202A23
:1030F0002A200A0D000000002A2A2A2A2A68656C64
:103100006C6F20776F726C642063757272656E7479
:103110002062617564726174652069733A25640A7E
:103120000D0000001C0000202A2A2A2A2A68656C4B
:103130006C6F20776F726C642063757272656E7449
:1031400020636F7265636C6F636B2069733A2564EB
:1031500020487A0A0D000000180000200D0A646D56
:103160006120B4ABCAE4CDEAB3C9A3A1000000005A
:103170000D0A646D6120B4ABCAE4D2BBB0EBA3A16D
:10318000000000000D0A646D6120B4ABCAE4B4ED28
:10319000CEF3A3A100000000704700BFFEE700BF10
:1031A000FEE700BFFEE700BFFEE7704770477047CD
:1031B00010B5FDF763FC10BD10B50549086BFDF7B0
:1031C00097FA10BD10B50248FFF7C1FD10BD000011
:1031D000240000203448006840F0010032490860B3
:1031E00008464068314908402F4948600846006851
:1031F0002F4908402C4908600846006820F48020C8
:1032000008600846406820F4FE0048604FF41F0044
:103210008860C80327490860704710B50021002066
:103220000022214B5B6803F00C0121B1042906D078
:10323000082928D107E0204B204C236027E01E4BB3
:103240001E4C236023E0184B5B6803F47010164B90
:103250005B6803F48032022303EB904022B9184BE1
:103260004343164C23600DE00F4B5B6803F40033BF
:1032700023B1134B4343114C236003E00E4B4343F4
:103280000E4C236003E00C4B0C4C236000BF00BFCE
:10329000054B5B68C3F303130A4CE15C074B1B68E7
:1032A000CB40064C236010BD001002400000FFF828
:1032B000FFFFF6FE08ED00E000127A001C0000207F
:1032C00000093D008435000810B586B0044600BFF3
:1032D0002848806940F004002649886108468069D2
:1032E00000F00400019000BF00BF00BF08468069E5
:1032F00040F0040088610846806900F004000190F5
:1033000000BF00BF00BF0846C06940F40030C8617C
:103310000846C06900F40030019000BF00BF0420DF
:10332000029002200390012004900320059002A93E
:103330001148FDF773FD0820029002A90E48FDF721
:103340006DFD06B010BD10B504460A48006940F492
:103350000030084908610846006920F4003008611F
:1033600004210548FDF7D8FE08210348FDF7D4FEE7
:1033700010BD00000010024000080140D2B201E080
:1033800000F8012B491EFBD270470022F6E710B56A
:1033900013460A4604461946FFF7F0FF204610BDC3
:1033A00030B50B46014600202022012409E021FA15
:1033B00002F59D4205D303FA02F5491B04FA02F512
:1033C0002844151EA2F10102F1DC30BD064C074D68
:1033D00006E0E06840F0010394E8070098471034E5
:1033E000AC42F6D3FCF786FE04360008243600080B
:1033F0000FB4054B10B503A9044A029800F018F861
:1034000010BC5DF814FB0000AF3000082000002065
:1034100002E008C8121F08C1002AFAD1704770479D
:10342000002001E001C1121F002AFBD170470000FB
:103430002DE9FF4F89B09B460446002506E025286C
:103440000BD05A460B999047641C6D1C20780028BD
:10345000F5D10DB02846BDE8F08F0027B84601220F
:10346000474900E0074314F8013F203B02FA03F00C
:103470000842F7D120782E2819D114F8010F47F00F
:1034800004072A280ED06FF02F022078A0F1300117
:1034900009290CD808EB880102EB410100EB010877
:1034A000641CF2E70A98641C50F8048B0A90207898
:1034B0000028CED0642808D0692806D075281ED0F0
:1034C0005A460B9990476D1C58E00A994FF00A092B
:1034D00001C90A91002802DA40422D2102E0390593
:1034E00004D52B218DF82010012103E0F90704D029
:1034F0002021F7E78A4608AE0DE00021FAE70A9995
:103500004FF00A0901C90A91F7E74946FFF748FF5A
:10351000303106F8011D0028F7D1ADEB060000F1AF
:103520002009780701D44FF00108C84502DDA8EB57
:10353000090000E000208046002706E008A85A465F
:10354000C05D0B9990476D1C7F1C5745F6DB04E06E
:1035500030205A460B9990476D1CB8F10001A8F134
:103560000108F5DC05E016F8010B5A460B99904767
:103570006D1CB9F10001A9F10109F4DC641C65E7D7
:1035800009280100000000000000000001020304FF
:103590000607080900000000010203040A0D205577
:1035A000415254205072696E7466204578616D7086
:1035B0006C653A2072657461726765742074686521
:1035C0002043206C696272617279207072696E7436
:1035D000662066756E6374696F6E20746F20746800
:1035E0006520554152540A0D0000000068656C6C5E
:1035F0006F20776F726C6421206920676F74206977
:10360000742100002436000800000020240000007F
:103610001034000848360008240000207C04000014
:103620002034000800000000777177777177777198
:10363000777771777771777771777771EC350008E5
:0836400000A24A040000000092
:04000005080000ED02
:00000001FF
