:020000040800F2
:10000000102E0020A5010008C11C00086B1C000870
:10001000BD1C0008850300085922000800000000EC
:1000200000000000000000000000000001010008C6
:10003000B90300080000000045010008FD1C00088D
:10004000BF010008BF010008BF010008BF01000890
:10005000BF010008BF010008BF010008BF01000880
:10006000BF010008BF010008BF010008BF01000870
:10007000BF010008BF010008BF010008BF01000860
:10008000BF01000889030008BF010008BF01000884
:10009000BF010008BF010008BF010008BF01000840
:1000A000BF010008BF010008BF010008BF01000830
:1000B000BF010008BF010008BF010008BF01000820
:1000C000BF010008BF010008BF010008BF01000810
:1000D000BF010008BF01000849220008BF01000855
:1000E000BF010008BF010008BF010008DFF80CD005
:1000F00000F0ACF8004800477D240008102E0020D6
:10010000204B19680868B0E8F00F80F30988BFF346
:100110006F8F4FF0000080F311884EF00D0E704786
:100120000000000006480068006880F3088862B696
:1001300061B6BFF34F8FBFF36F8F00DF00BF00BF0B
:1001400008ED00E0EFF30980BFF36F8F0D4B1A68E5
:1001500020E9F00F106008B54FF0500080F31188CF
:1001600003F0B2F84FF0000080F31188BDE80840BA
:1001700019680868B0E8F00F80F30988BFF36F8F43
:10018000704700BF30000020EFF311804FF05001A6
:1001900081F31188704780F311887047EFF3058071
:1001A000704700000648804706480047FEE7FEE724
:1001B000FEE7FEE7FEE7FEE7FEE7FEE7FEE7FEE717
:1001C000691D0008ED00000840EA01039B0703D009
:1001D00009E008C9121F08C0042AFAD203E011F886
:1001E000013B00F8013B521EF9D27047D2B201E048
:1001F00000F8012B491EFBD270470022F6E710B52C
:1002000013460A4604461946FFF7F0FF204610BD84
:10021000421C10F8011B0029FBD1801A704730B531
:100220000B46014600202022012409E021FA02F5B4
:100230009D4205D303FA02F5491B04FA02F528444E
:10024000151EA2F10102F1DC30BD0000064C074D85
:1002500006E0E06840F0010394E807009847103496
:10026000AC42F6D3FFF746FF543F0008743F000846
:1002700010B586B0044600200290039004900590CB
:1002800000BF6CB900BF2C48806940F010002A49BB
:1002900088610846806900F01000019000BF2FE0DF
:1002A000012C0DD100BF2448806940F02000224974
:1002B00088610846806900F02000019000BF1FE0BF
:1002C000022C0DD100BF1C48806940F020001A4963
:1002D00088610846806900F02000019000BF0FE0AF
:1002E000032C0DD100BF1448806940F02000124952
:1002F00088610846806900F02000019000BF00BFBF
:1003000000BF0E4830F81400029001200390002036
:100310000490032005900A4951F8240002A900F036
:1003200049FA064A32F81410054A52F8240000220D
:1003300000F0C8FB06B010BD00100240683E000887
:100340000800002010B50446044A32F81410044A8C
:1003500052F82400002200F0B5FB10BD683E0008F2
:100360000800002010B50446044A32F81410044A6C
:1003700052F8240000F0A2FB10BD0000683E000807
:100380000800002000BFFEE710B50249086B00F02E
:1003900017F810BD9801002010B504686360446828
:1003A000102C04D10468A2600468E16003E00468D2
:1003B000A1600468E26010BD704700BFFEE7000066
:1003C00010B50446C1480068C04A0832216891420D
:1003D00001D1082127E0BD4A1C322168914201D198
:1003E000802120E0B94A30322168914201D1C914FC
:1003F00019E0B64A44322168914202D14FF40041DB
:1004000011E0B24A58322168914202D14FF40021E2
:1004100009E0AE4A6C322168914202D14FF40001EA
:1004200001E04FF00061084000284DD020680068CE
:10043000C0F3C00090B32068006820F00800216875
:100440000860A24908312068884201D1082028E0CC
:100450009E491C312068884201D1802021E09B49BF
:1004600030312068884201D1C0141AE097494431E4
:100470002068884202D14FF4004012E0934958317D
:100480002068884202D14FF400200AE08F496C3185
:100490002068884203D14FF4000002E014E04FF0DE
:1004A00000608A494860606B40F00100606304208E
:1004B00084F8210000BF002084F8200000BF206BDA
:1004C00010B12046216B8847804800687F4A083277
:1004D0002168914201D1042127E07C4A1C32216825
:1004E000914201D1402120E0784A30322168914286
:1004F00001D1091519E0754A44322168914202D1AF
:100500004FF4804111E0714A58322168914202D182
:100510004FF4802109E06D4A6C322168914202D18A
:100520004FF4800101E04FF080610840A0B32068E3
:100530000068C0F3800078B32068006800F02000F5
:1005400028B92068006820F00400216808605F492D
:1005500008312068884201D1042028E05B491C3121
:100560002068884201D1402021E05849303120687C
:10057000884201D100151AE054494431206888426C
:1005800002D14FF4804012E050495831206888422F
:1005900003D14FF480200AE013E04C496C3120680D
:1005A000884202D14FF4800001E04FF0806047495B
:1005B0004860112084F82100E06A10B12046E16A09
:1005C000884742480068414A08322168914201D177
:1005D000022127E03D4A1C322168914201D12021AD
:1005E00020E03A4A30322168914201D1491519E0A0
:1005F000364A44322168914202D14FF4005111E051
:10060000324A58322168914202D14FF4003109E058
:100610002E4A6C322168914202D14FF4001101E060
:100620004FF000710840A0B320680068C0F340009C
:1006300078B32068006800F0200028B920680068BE
:1006400020F00200216808602049083120688842B3
:1006500001D1022028E01D491C312068884201D1C7
:10066000202021E0194930312068884201D140150D
:100670001AE0164944312068884202D14FF40050F4
:1006800012E0124958312068884203D14FF40030FB
:100690000AE01AE00D496C312068884202D14FF41B
:1006A000001001E04FF0007008494860606B606323
:1006B000012084F8210000BF002084F8200000BF42
:1006C000A06A10B12046A16A884710BD0000024010
:1006D0000146002209B90120704791F8210010B9A4
:1006E000002081F82000022081F8210008680268BB
:1006F00043F6F0708243D1E901031843CB681843F5
:100700000B6918434B6918438B691843CB6918432D
:1007100002430868026000204863012081F821003C
:100720000020D9E72DE9F04104460D4616461F4644
:1007300000BF94F82000012802D10220BDE8F0811A
:10074000012084F8200000BF022084F821002068E6
:10075000006820F00100216808603B4632462946C7
:100760002046FFF719FE2068006840F0020021686B
:1007700008602068006840F0040021680860206874
:10078000006840F00800216808602068006840F0B8
:100790000100216808600020D0E731B5002400F096
:1007A00097F9044600BF00F093F9001B00998842B6
:1007B000F9D338BD2DE9F847034600240020002571
:1007C00084460027002266E14FF0010808FA02F48F
:1007D000D1F8008008EA0400A0427DD1DFF8C0A271
:1007E000D1F80480A8EB0A09D0453AD014DCB8F15E
:1007F000030F50D009DCB8F1000F31D0B8F1010F70
:100800001CD0B8F1020F49D120E0B8F1110F18D077
:10081000B8F1120F42D11EE0B9F5881F25D006DCD1
:10082000B9F5803F20D0B9F5801F37D11AE0B9F56E
:10083000001F18D0B9F5041F30D117E0D1F80CC053
:100840002DE0D1F80C8008F1040C28E0D1F80C80E0
:1008500008F1080C23E0D1F80C8008F10C0C1EE024
:1008600000BF00BF00BF00BF00BF00BFD1F80880BD
:10087000B8F1000F02D14FF0040C0BE0D1F8088062
:10088000B8F1010F03D14FF0080C1C6102E04FF0EA
:10089000080C5C6103E04FF0000C00E000BF00BFFB
:1008A000FF2801D8984601E003F104084646FF28D6
:1008B00002D84FEA820803E0A2F108084FEA88084C
:1008C0004746D6F800804FF00F0909FA07F928EAE1
:1008D00009080CFA07F900E085E048EA0908C6F8BB
:1008E0000080D1F8048008F08058B8F1805F7AD198
:1008F00000BFDFF8B081D8F8188048F00108DFF8B1
:10090000A491C9F81880C846D8F8188008F00108E2
:10091000CDF8008000BF00BF4FEAB9384FEA920916
:1009200058F829504FEA82784FEA18794FF00F08AB
:1009300008FA09F825EA0805DFF86C81434502D179
:100940004FF000080FE0DFF86481434502D14FF01B
:10095000010808E0DFF85881434502D14FF0020852
:1009600001E04FF003084FEA82794FEA197908FA5B
:1009700009F848EA0505DFF83C814FEA920948F892
:100980002950D1F8048008F48038B8F5803F0AD1A6
:10099000DFF82481D8F8008048EA0008DFF81891D1
:1009A000C9F8008009E0DFF81081D8F8008028EA53
:1009B0000008DFF80491C9F80080D1F8048008F439
:1009C0000038B8F5003F0FD1DFF8EC8008F10408DB
:1009D000D8F8008048EA0008DFF8DC9009F1040943
:1009E000C9F800800EE055E0DFF8CC8008F104087B
:1009F000D8F8008028EA0008DFF8BC9009F1040963
:100A0000C9F80080D1F8048008F48018B8F5801F78
:100A10000ED1DFF8A48008F10808D8F8008048EA71
:100A20000008DFF8949009F10809C9F800800DE08A
:100A3000DFF8848008F10808D8F8008028EA000868
:100A4000DFF8749009F10809C9F80080D1F8048032
:100A500008F40018B8F5001F0ED1DFF85C8008F12B
:100A60000C08D8F8008048EA0008DFF84C9009F13B
:100A70000C09C9F800800DE0DFF83C8008F10C0893
:100A8000D8F8008028EA0008DFF82C9009F10C095A
:100A9000C9F80080521C102AFFF496AEBDE8F88712
:100AA000000011100010024000080140000C01403D
:100AB000001001400800014000040140C2684A40A3
:100AC000C26070470AB1016101E00B040361704725
:100AD00001480068704700000000002002480068DC
:100AE000401C0149086070470000002010B508480C
:100AF000006840F0100006490860032000F068F824
:100B00000F2000F007F800F017F8002010BD0000DB
:100B10000020024070B5044600F0BAF94FF47A7133
:100B2000B0FBF1F5284600F07BFE00222146501E66
:100B300000F010F8002070BD704700BF00F01F02E9
:100B4000012191404209920002F1E022C2F8001115
:100B500000BF70472DE9F05F80460D46164600271E
:100B600001F0B0F8074639462A46334601F007003F
:100B7000C0F1070ABAF1040F02D94FF0040A01E0EC
:100B8000C0F1070AD14600F1040ABAF1070F02D2F8
:100B90004FF0000A01E0A0F1030AD4464FF0010A29
:100BA0000AFA09FAAAF1010A0AEA020A0AFA0CFA8E
:100BB0004FF0010B0BFA0CFBABF1010B0BEA030B33
:100BC0004AEA0B042146404601F084F8BDE8F09F54
:100BD00000BF00F00702064B19684FF6FF031940EB
:100BE000044B0B4343EA0221014B196000BF7047DD
:100BF0000CED00E00000FA0570B504460D46002635
:100C00009F48006800F00700A8420ED29C48006888
:100C100020F0070028439A4908600846006800F061
:100C20000700A84201D0012070BD207800F002002A
:100C3000022807D19348406820F0F000A1680843DB
:100C400090494860207800F0010000287CD060685E
:100C500001282DD12020010391FAA1F1B1FA81F1EF
:100C600008430121B1EB601F02D1864800680FE004
:100C70002020010391FAA1F1B1FA81F10843022188
:100C8000B1EB601F02D17F48006A01E07D48406AF5
:100C900020210A0392FAA2F2B2FA82F2114301F081
:100CA0001F02012191400840002860D10120BBE7CC
:100CB000606802282CD12020010591FAA1F1B1FA37
:100CC00081F108430121B1EB601F02D16D4800683A
:100CD0000FE02020010591FAA1F1B1FA81F108435A
:100CE0000221B1EB601F02D16648006A01E065484D
:100CF000406A20210A0592FAA2F2B2FA82F2114366
:100D000001F01F0201219140084078BB01208BE7D0
:100D10002020022191FAA1F1B1FA81F108430121C9
:100D2000B1EB601F02D15748006810E0202002217B
:100D300091FAA1F1B1FA81F108430221B1EB601FF0
:100D400003D15048006A02E054E04E48406A202136
:100D5000022292FAA2F2B2FA82F2114301F01F02C9
:100D600001219140084008B901205DE7FFE74548AF
:100D7000406820F003006168084342494860FFF77B
:100D8000A7FE06466068012810D108E0FFF7A0FE24
:100D9000801B41F28831884201D9032044E7394859
:100DA000406800F00C000428F0D123E060680228BD
:100DB00010D108E0FFF78CFE801B41F28831884299
:100DC00001D9032030E72F48406800F00C000828C4
:100DD000F0D10FE008E0FFF77BFE801B41F2883185
:100DE000884201D903201FE72648406800F00C0024
:100DF0000028F0D12248006800F00700A8420ED970
:100E00001F48006820F0070028431D490860084675
:100E1000006800F00700A84201D0012004E7207814
:100E200000F00400042807D11648406820F4E06070
:100E3000E168084313494860207800F0080008285A
:100E400008D11048406820F46050216940EAC10090
:100E50000C49486000F04EF80A49496801F0F00179
:100E6000F02292FAA2F2B2FA82F2D140064A515C22
:100E7000C840064908600F20FFF74CFE0020D3E66B
:100E80000020024000100240503E000804000020F4
:100E900001480068704700000400002000B5FFF71B
:100EA000F7FF0749496801F4E0614FF4E06292FA04
:100EB000A2F2B2FA82F2D140024A515CC84000BDAF
:100EC00000100240603E000800B5FFF7E1FF07494F
:100ED000496801F460514FF4605292FAA2F2B2FAFA
:100EE00082F2D140024A515CC84000BD001002406D
:100EF000603E0008F0B585B00FF28C0C9CE8E01065
:100F000001A8A0E8E01024A52D6800950021002488
:100F1000002200230020214D696801F00C056DB30B
:100F2000042D02D0082D28D101E01D4828E001F44D
:100F300070154FF4701696FAA6F6B6FA86F6F540D6
:100F400001AE735D01F4803595B1144D6D6805F403
:100F500000354FF4003696FAA6F6B6FA86F6F54056
:100F60001DF805400E4DB5FBF4F505FB03F202E05C
:100F70000C4D03FB05F2104602E000BF084800BF1D
:100F800000BF05B0F0BD0000020304050607080914
:100F90000A0B0C0D0E0F1010010200000010024091
:100FA00000127A0000093D0038B50446002520787B
:100FB00000F0010000287CD0F848406800F00C00E8
:100FC00004280CD0F548406800F00C00082837D100
:100FD000F248406800F48030B0F5803F30D12020E6
:100FE000010391FAA1F1B1FA81F108430121B1EBBA
:100FF000601F02D1E94800680FE02020010391FA48
:10100000A1F1B1FA81F108430221B1EB601F02D1D5
:10101000E248006A01E0E148406A20210A0392FAAE
:10102000A2F2B2FA82F2114301F01F0201219140B3
:1010300008400028BFD0606800283AD1012038BDA0
:1010400000BF6068B0F5803F06D1D448006840F426
:101050008030D249086028E0606858B9CF480068FD
:1010600020F48030CD4908600846006820F48020D4
:1010700008601AE06068B0F5A02F0BD1C74800687F
:1010800040F48020C54908600846006840F480307C
:1010900008600AE0C148006820F48030BF49086059
:1010A0000846006820F48020086000BF6068C8B36C
:1010B00000E06FE0FFF70CFD054606E0FFF708FDD6
:1010C000401B642801D90320B9E72020010391FACD
:1010D000A1F1B1FA81F108430121B1EB601F02D106
:1010E000AE4800680FE02020010391FAA1F1B1FAA7
:1010F00081F108430221B1EB601F02D1A748006AC9
:1011000001E0A648406A20210A0392FAA2F2B2FA4C
:1011100082F2114301F01F02012191400840002892
:10112000CCD037E0FFE7FFF7D3FC054606E0FFF73A
:10113000CFFC401B642801D9032080E72020010355
:1011400091FAA1F1B1FA81F108430121B1EB601FDD
:1011500002D1924800680FE02020010391FAA1F12A
:10116000B1FA81F108430221B1EB601F02D18B4833
:10117000006A01E08948406A20210A0392FAA2F23B
:10118000B2FA82F2114301F01F020121914008409E
:101190000028CCD1207800F0020002284ED17F48F0
:1011A000406800F00C0050B17C48406800F00C0032
:1011B000082844D17948406800F4803078BB20206A
:1011C000022191FAA1F1B1FA81F108430121B1EBB9
:1011D000601F02D1714800680FE02020022191FABF
:1011E000A1F1B1FA81F108430221B1EB601F02D1F4
:1011F0006A48006A01E06948406A2021022292FAA6
:10120000A2F2B2FA82F2114301F01F0201219140D1
:10121000084028B12069012802D001200FE70EE024
:101220005E48006820F0F800F82292FAA2F2B2FAC2
:1012300082F26169914008435849086091E0206951
:10124000F0B3012090FAA0F1B1FA81F1544A42F8CA
:101250002100FFF73DFC054606E0FFF739FC401B87
:10126000022801D90320EAE62020022191FAA1F107
:10127000B1FA81F108430121B1EB601F02D1474867
:1012800000680FE02020022191FAA1F1B1FA81F16A
:1012900008430221B1EB601F02D14048006A01E01F
:1012A0003E48406A2021022292FAA2F2B2FA82F269
:1012B000114301F01F02012191400840002800E085
:1012C0000FE0CAD03548006820F0F800F82292FA02
:1012D000A2F2B2FA82F26169914008432F49086094
:1012E0003FE00020012191FAA1F1B1FA81F12C4AED
:1012F00042F82100FFF7ECFB054606E0FFF7E8FBAC
:10130000401B022801D9032099E62020022191FAEE
:10131000A1F1B1FA81F108430121B1EB601F02D1C3
:101320001E4800680FE02020022191FAA1F1B1FAD5
:1013300081F108430221B1EB601F02D11748006A16
:1013400001E01648406A2021022292FAA2F2B2FA83
:1013500082F2114301F01F02012191400840002850
:10136000CCD1207800F0080008284BD1A069A8B3A0
:10137000012191FAA1F0B0FA80F0094A02EB800055
:10138000C0F88014FFF7A4FB05460BE0FFF7A0FBB5
:10139000401B022806D9032051E60000001002403D
:1013A000000042426020022191FAA1F1B1FA81F1DC
:1013B00008430121B1EB601F02D1F948006810E039
:1013C0006020022191FAA1F1B1FA81F108430221D2
:1013D000B1EB601F03D1F248006A02E013E0F0486D
:1013E000406A6021022292FAA2F2B2FA82F211431A
:1013F00001F01F020121914008400028C6D00120C1
:10140000FFF7CBF941E00020012191FAA1F1B1FAF7
:1014100081F1E44A02EB8101C1F88004FFF758FB37
:10142000054606E0FFF754FB401B022801D90320C4
:1014300005E66020022191FAA1F1B1FA81F1084399
:101440000121B1EB601F02D1D54800680FE0602098
:10145000022191FAA1F1B1FA81F108430221B1EB25
:10146000601F02D1CE48006A01E0CD48406A602189
:10147000022292FAA2F2B2FA82F2114301F01F02A2
:101480000121914008400028CCD1207800F00400D0
:10149000042875D100BFC248C06940F08050C049DF
:1014A000C8610846C06900F08050009000BF00BFCE
:1014B000BD48006840F48070BB490860FFF708FB36
:1014C000054606E0FFF704FB401B642801D9032012
:1014D000B5E5B548006800F480700028F2D000BF80
:1014E000E068012806D1AE48006A40F00100AC492E
:1014F000086227E0E06858B9A948006A20F00100B6
:10150000A74908620846006A20F00400086219E052
:10151000E06805280BD1A248006A40F00400A04909
:1015200008620846006A40F0010008620AE09C4830
:10153000006A20F001009A4908620846006A20F01B
:101540000400086200BFE068D0B3FFF7C1FA0546A7
:1015500008E0FFF7BDFA401B41F28831884201D90B
:1015600003206CE54020022191FAA1F1B1FA81F14A
:1015700008430121B1EB601F03D18948006810E0E6
:1015800058E04020022191FAA1F1B1FA81F108431B
:101590000221B1EB601F02D18148006A01E080485E
:1015A000406A4021022292FAA2F2B2FA82F2114378
:1015B00001F01F020121914008400028C9D039E004
:1015C000FFE7FFF785FA054608E0FFF781FA401BC1
:1015D00041F28831884201D9032030E540200221C0
:1015E00091FAA1F1B1FA81F108430121B1EB601F39
:1015F00002D16B4800680FE04020022191FAA1F16E
:10160000B1FA81F108430221B1EB601F02D16448B5
:10161000006A01E06248406A4021022292FAA2F286
:10162000B2FA82F2114301F01F02012191400840F9
:101630000028CAD1E069002873D05948406800F0FA
:101640000C0008286ED0E06902286CD100204FF011
:10165000807191FAA1F1B1FA81F1524A42F8210068
:10166000FFF736FA054606E0FFF732FA401B02287C
:1016700001D90320E3E42020010591FAA1F1B1FA98
:1016800081F108430121B1EB601F02D14448006899
:101690000FE02020010591FAA1F1B1FA81F1084390
:1016A0000221B1EB601F02D13D48006A01E03C48D5
:1016B000406A20210A0592FAA2F2B2FA82F211439C
:1016C00001F01F020121914008400028CCD1206A7E
:1016D000B0F5803F07D13248406820F40030A1685F
:1016E00008432F494860D4E9080108432C49496858
:1016F00021F4741108432A4948600121080690FA30
:10170000A0F0B0FA80F0274A42F82010FFF7E0F985
:10171000054609E0FFF7DCF9401B022804D9032045
:101720008DE479E076E02CE02020010591FAA1F12A
:10173000B1FA81F108430121B1EB601F02D11848D1
:1017400000680FE02020010591FAA1F1B1FA81F1C2
:1017500008430221B1EB601F02D11148006A01E089
:101760000F48406A20210A0592FAA2F2B2FA82F2E8
:10177000114301F01F020121914008400028C9D007
:101780004AE000204FF0807191FAA1F1B1FA81F1A5
:10179000044A42F82100FFF79BF905460DE00000DE
:1017A000001002400000424200700040FFF790F934
:1017B000401B022801D9032041E42020010591FAB1
:1017C000A1F1B1FA81F108430121B1EB601F02D10F
:1017D000124800680FE02020010591FAA1F1B1FA4A
:1017E00081F108430221B1EB601F02D10B48006A6E
:1017F00001E00A48406A20210A0592FAA2F2B2FAF0
:1018000082F2114301F01F0201219140084000289B
:10181000CCD101E0012012E4002010E400100240CD
:1018200070B504462546681EB0F1807F01D30120C3
:101830000FE0681E4FF0E02148610F214FF0FF30AC
:1018400000F048FA00204FF0E0218861072008618D
:10185000002070BD7047F8B50446002500262068BA
:10186000006800F001052068C06800F4807625B1AA
:101870001EB1E06B40F00100E06320680068C0F337
:1018800040052068406900F0010625B11EB1E06BFB
:1018900040F00400E06320680068C0F3800525B1D3
:1018A0001EB1E06B40F00200E06320680068C0F306
:1018B000C00525B11EB1E06B40F00800E063206870
:1018C0000068C0F340152068C06800F020061DB114
:1018D00016B1204600F0BFFA20680068C0F3C015BA
:1018E0002068C06800F080061DB116B1204600F0E7
:1018F000F5FB20680068C0F380152068C06800F020
:1019000040061DB116B1204600F08DFAE06B70B1B3
:1019100000BF20680068009020684068009000BF09
:1019200000BF012084F839002046FFF793FFF8BD7F
:1019300010B504460CB9012010BDA06900B100E04B
:1019400000BF94F8390028B9002084F838002046F8
:1019500000F026F8022084F839002068C06820F4DE
:1019600000502168C860204600F0D4FA2068006961
:1019700020F49040216808612068406920F02A0026
:10198000216848612068C06840F400502168C86040
:101990000020E063012084F839000020CCE700003B
:1019A00010B586B0044600BF1D48806940F00400B1
:1019B0001B4988610846806900F00400019000BF5F
:1019C00000BF00BF0846806940F0040088610846F7
:1019D000806900F00400019000BF00BF00BF08460E
:1019E000C06940F40030C8610846C06900F40030A6
:1019F000019000BF00BF042002900220039001204C
:101A000004900320059002A90648FEF7D3FE0820A3
:101A1000029002A90348FEF7CDFE06B010BD0000FB
:101A2000001002400008014070472DE9F0470446CD
:101A30000D46164699464FF0000894F83980B8F1E3
:101A4000010F02D0B8F1220F65D105B116B90120FE
:101A5000BDE8F08700BF94F83800012801D10220CA
:101A6000F6E7012084F8380000BF0020E06394F816
:101A70003900222803D1322084F8390002E01220F4
:101A800084F83900A684E68428E0E08C401EE084D7
:101A9000A068B0F5805F14D14B460022802120461B
:101AA00000F054FB08B10320D2E72F463888C0F37A
:101AB000080021684860206908B9AD1C0EE06D1C63
:101AC0000CE04B4600228021204600F03FFB08B18D
:101AD0000320BDE715F8010B21684860E08C002861
:101AE000D3DC4B4600224021204600F02FFB08B1FA
:101AF0000320ADE794F83900322803D1222084F87E
:101B0000390002E0012084F8390000BF002084F889
:101B1000380000BF9CE702209AE70000F7B50446B2
:101B20001546002794F83970012F01D0222F41D19A
:101B3000019800B10DB90120FEBD00BF94F8380036
:101B4000012801D10220F7E7012084F8380000BF06
:101B500001982062A584E5840020E06394F83900B0
:101B6000222803D1322084F8390002E0122084F8C0
:101B700039001148216B88621048216BC8621048F7
:101B8000216B086301AE23681A1D31682B46206B58
:101B9000FEF7C8FD6FF040002168086020684069CA
:101BA00040F080002168486100BF002084F83800C0
:101BB00000BFC1E70220BFE7E31D0008191E0008AF
:101BC000C11D000830B50346002493F83940012CAC
:101BD00001D0222C2BD101B10AB9012030BD00BFA8
:101BE00093F83800012801D10220F7E7012083F89B
:101BF000380000BF19629A84DA840020D86393F811
:101C00003900222803D1322083F8390002E0122063
:101C100083F8390000BF002083F8380000BF18683F
:101C2000C06840F080001D68E8600020D6E7022010
:101C3000D4E7000010B5044603A000F00FFB0948EC
:101C4000006800F04FFD10BD0D0A756172742064CC
:101C50006D612F697420B4ABCAE4CDEAB3C9A3A106
:101C6000000000007C000020704700BFFEE7002459
:101C700000BF00F013FD41F28831441805E0002058
:101C8000FEF770FB642000F0F8FC00F007FDA042B6
:101C9000F5D90020FEF756FB00F000FD41F2883137
:101CA000441806E00020FEF75DFB4FF4C87000F01A
:101CB000E4FC00F0F3FCA042DBD8F3E700BFFEE752
:101CC0007047000002480068C0F30220704700001F
:101CD0000CED00E010B5002807DA0A07140E054ADB
:101CE00000F00F031B1FD45403E00A07130E024A2F
:101CF000135410BD18ED00E000E400E010B500F052
:101D000047FDFEF7EBFE10BD00B58FB014210AA809
:101D1000FEF773FA28216846FEF76FFA012000905B
:101D2000000401900020029002200790C103089156
:101D30004FF4E01109916846FFF736F908B100BF8A
:101D4000FEE70F200A9002200B9000200C900E90CE
:101D50004FF480600D9002210AA8FEF74DFF08B1F4
:101D600000BFFEE70FB000BD1148006840F0010061
:101D70000F490860084640680E4908400C49486011
:101D8000084600680C490840094908600846006890
:101D900020F4802008600846406820F4FE00486077
:101DA0004FF41F008860C8030449086070470000B2
:101DB000001002400000FFF8FFFFF6FE08ED00E013
:101DC00070B505466C6A0020E085E084012084F847
:101DD0003900E06B40F01000E0632046FFF73AFD69
:101DE00070BD70B505466C6A2868006800F0200078
:101DF00070B90020E0842068406920F080002168EC
:101E000048612068C06840F040002168C86002E076
:101E10002046FFF70FFF70BD70B50446656A28467F
:101E2000FFF722FF70BD10B504462068C06820F09F
:101E300040002168C86094F83900322803D122207C
:101E400084F8390002E0012084F839002046FFF7C9
:101E5000F1FE002010BD70B50446002694F83960EC
:101E6000222E01D0322E52D1A068B0F5805F13D15E
:101E7000A56A206940B920684068C0F3080028803E
:101E8000A06A801CA06219E020684068C0B2288067
:101E9000A06A401CA06211E0206938B9206840683F
:101EA000C1B2A26A501CA062117007E020684068AD
:101EB00000F07F01A26A501CA0621170E08D401EEC
:101EC00080B2E08508BB2068C06820F0200021684F
:101ED000C86094F83900322803D1122084F8390000
:101EE0000EE02068C06820F480702168C860206817
:101EF000406920F0010021684861012084F8390020
:101F00002046FFF791FD002070BD0020FCE7022075
:101F1000FAE700002DE9F041044600252068006939
:101F200020F44050E1680843216808612169A068F5
:101F30000843616940EA01052068C06841F20C610C
:101F4000884328432168C8602068406920F44070B5
:101F5000A1690843216848615F49206888425CD1D3
:101F6000FEF7B2FF00EBC00101EB001061688900D1
:101F7000B0FBF1F6FEF7A8FF00EBC00101EB00108B
:101F800061688900B0FBF1F06421B0FBF1F000EB77
:101F9000C00101EB0010A6EB8000322101EB001024
:101FA0006421B0FBF1F000F0F006FEF78DFF00EBCE
:101FB000C00101EB001061688900B0FBF1F0642101
:101FC000B0FBF1F006EB0016FEF77EFF00EBC00160
:101FD00001EB001061688900B0FBF1F7FEF774FFB8
:101FE00000EBC00101EB001061688900B0FBF1F06B
:101FF0006421B0FBF1F000EBC00101EB0010A7EB96
:102000008000322101EB00106421B0FBF1F000F000
:102010000F003044216888605BE0FEF73FFF00EB73
:10202000C00101EB001061688900B0FBF1F6FEF71A
:1020300035FF00EBC00101EB001061688900B0FBC7
:10204000F1F06421B0FBF1F000EBC00101EB0010F6
:10205000A6EB8000322101EB00106421B0FBF1F00F
:1020600000F0F006FEF71AFF00EBC00101EB0010D4
:1020700061688900B0FBF1F06421B0FBF1F006EB80
:102080000016FEF70BFF00EBC00101EB00106168CA
:102090008900B0FBF1F7FEF701FF00EBC00101EB97
:1020A000001061688900B0FBF1F06421B0FBF1F031
:1020B00000EBC00101EB0010A7EB8000322101EB27
:1020C00000106421B0FBF1F000F00F0030442168F3
:1020D0008860BDE8F08100000038014010B501467D
:1020E000002391F83930122B01D0322B2CD1886883
:1020F000B0F5805F0FD10A6A1088C0F308000C6841
:102100006060086918B9086A801C086209E0086AFA
:10211000401C086205E00C6A601C086220780C68AC
:102120006060C88C401E80B2C88458B90868C06816
:1021300020F080000C68E0600868C06840F0400053
:102140000C68E060002010BD0220FCE72DE9F041A2
:1021500004460E4617461D464FF00008FEF7B8FC31
:1021600080469FBB2BE0681C48B32DB1FEF7B0FC46
:10217000A0EB0800A84222D92068C06820F08000A7
:102180002168C8602068C06820F020002168C8600D
:102190002068C06820F480702168C86020684069A9
:1021A00020F0010021684861012084F8390000BF57
:1021B000002084F8380000BF0320BDE8F0812068CB
:1021C00000683040B04202D1012001E003E000206D
:1021D0000028C8D035E02AE0681C40B32DB1FEF7D6
:1021E00077FCA0EB0800A84221D92068C06820F045
:1021F00080002168C8602068C06820F02000216845
:10220000C8602068C06820F480702168C8602068B9
:10221000406920F0010021684861012084F83900FC
:1022200000BF002084F8380000BF0320C5E7206805
:1022300000683040B04201D1012000E000200028B9
:10224000CAD10020B9E7000010B50248FFF703FB30
:1022500010BD00009801002000BFFEE70FB4054B41
:1022600010B503A9044A029800F018F810BC5DF8F4
:1022700014FB000051240008A400002002E008C85C
:10228000121F08C1002AFAD170477047002001E0F0
:1022900001C1121F002AFBD1704700002DE9FF4F3A
:1022A00089B09B460446002506E025280BD05A46F7
:1022B0000B999047641C6D1C20780028F5D10DB057
:1022C0002846BDE8F08F0027B8460122474900E0C4
:1022D000074314F8013F203B02FA03F00842F7D10C
:1022E00020782E2819D114F8010F47F004072A2866
:1022F0000ED06FF02F022078A0F1300109290CD800
:1023000008EB880102EB410100EB0108641CF2E7D5
:102310000A98641C50F8048B0A9020780028CED0CC
:10232000642808D0692806D075281ED05A460B9913
:1023300090476D1C58E00A994FF00A0901C90A91AB
:10234000002802DA40422D2102E0390504D52B2174
:102350008DF82010012103E0F90704D02021F7E7D0
:102360008A4608AE0DE00021FAE70A994FF00A0903
:1023700001C90A91F7E74946FDF751FF303106F8E8
:10238000011D0028F7D1ADEB060000F12009780708
:1023900001D44FF00108C84502DDA8EB090000E0B8
:1023A00000208046002706E008A85A46C05D0B9929
:1023B00090476D1C7F1C5745F6DB04E030205A46E1
:1023C0000B9990476D1CB8F10001A8F10108F5DCEC
:1023D00005E016F8010B5A460B9990476D1CB9F1B0
:1023E0000001A9F10109F4DC641C65E7092801007A
:1023F00010B5044601A0FFF731FF10BD0D0A646D52
:102400006120B4ABCAE4CDEAB3C9A3A100000000C7
:1024100010B5044601A0FFF721FF10BD0D0A646D41
:102420006120B4ABCAE4B4EDCEF3A3A10000000078
:1024300010B5044601A0FFF711FF10BD0D0A646D31
:102440006120B4ABCAE4D2BBB0EBA3A10000000092
:1024500013B50C464FF6FF73012269460248FFF799
:10246000E4FA00981CBD00009801002000BFEFF3C3
:10247000058008B1012070470020FCE790B0FEF70E
:1024800035FBFFF741FC0020FDF7F2FE48484949C3
:1024900008604FF4E1304860002146488160C16027
:1024A000016181610C21416143484249086308464A
:1024B000FFF73EFA08B1FDF780FF00BF3F484069D3
:1024C00040F001003D4948610846406900F00100C4
:1024D000009000BF00BF374837494862384808605D
:1024E000102048600021344841618021C1600021F2
:1024F000016181604FF44051C16100218161002080
:102500002D4981F821002F4888622F48C8622F4842
:1025100008630846FEF7DCF810B12DA0FFF79EFE19
:10252000002206211120FEF715FB0022062126209D
:10253000FEF710FB1120FEF700FB2620FEF7FDFA48
:102540002848FFF78BFE28A0FFF788FE194841684E
:1025500030A0FFF783FE3748016837A0FFF77EFE03
:1025600014223E490BA8FDF72FFE14223B491431DB
:1025700006A8FDF729FE14223849283101A8FDF7E5
:1025800023FE00210BA800F00BF93549086000215B
:1025900001A800F005F933490860002106A800F001
:1025A000FFF83149086000F074F800BFFEE7000052
:1025B0000044004098010020D80100200010024093
:1025C00080000240F1230008312400081124000893
:1025D00068616C5F646D615F696E697420657272B9
:1025E0006F722100C03E00082A2A2A2A2A2020547D
:1025F0006573742066696E697368656420737563BA
:102600006365737366756C6C792E202A2A200A0D17
:10261000000000002A2A2A2A2A2020637572726587
:102620006E742062617564726174652069733A2505
:10263000640A0D00040000202A2A2A2A2A20206386
:10264000757272656E7420636F7265636C6F636B15
:102650002069733A256420487A0A0D00843E0008F8
:10266000680000206C00002070000020014600205F
:10267000842901D0CA1C1044704770B50446254611
:102680000DB1294600E00121084600F005FD0020BB
:1026900070BD10B500F0E0FD002010BD10B5FFF7D3
:1026A000E5FE10B101F01CFA10BD01F013FAFBE7D2
:1026B00070B506460C46012C0ED1032200210120E4
:1026C00000F0D5FE05462DB100231A4619462846CE
:1026D00000F0EBFF284670BD0021204600F0A2FE6E
:1026E000F9E7000038B50446002500200090FFF708
:1026F000BDFE70B16946204601F078F8012801D08E
:10270000FF2038BD009868B14FF08050064908603E
:1027100008E000231A461946204600F0C6FF0128AB
:1027200000D0FF252846ECE704ED00E0F8B50646AA
:102730000C46002000900EB98020F8BD0025601CDA
:1027400008B96D1E03E014B1254605B90125FFF750
:102750008DFE78B16A460021304601F091F80128DB
:1027600001D0FF20E9E7009870B14FF08050074991
:10277000086009E000232A461946304600F0ACFE06
:10278000012801D0FF20D8E70020D6E704ED00E0C3
:1027900010B501F08FF9012801D000F033FE10BD13
:1027A00070B586B004460D46B4F90800FFF75EFF29
:1027B0000646002005AACDE9012000960390238A51
:1027C0009AB22B46D4E9001001F0D8F8012802D0C3
:1027D000002006B070BD0598FBE7000010B5044668
:1027E0000E48006844600E480068844207D20B48D7
:1027F0000168091D0B48006800F06AFB0CE00748FF
:102800000168091D0848006800F062FB074800687D
:10281000844201D20548046010BD00003000002051
:102820004400002038000020340000206000002018
:102830002DE9F04105460F461FB9A80000F016FA31
:1028400000E03846064656B15C2000F00FFA044618
:102850000CB1266304E0304600F098FB00E0002451
:1028600024B1A900A522206BFDF7C0FC2046BDE8DD
:10287000F081000070B523E000F01EFD13480068F1
:1028800008B9012000E00020054601F06DFABDB94D
:1028900000F044FB0D48C068C468201D00F0E6FA53
:1028A0000B480068401E0A4908600A480068401E3C
:1028B0000849086000F054FB204600F062F800BFB1
:1028C000044800680028D7D170BD000070010020C6
:1028D000400000203C00002070B504460D46206CEE
:1028E00070B1216CE0680844E0606168E06888428B
:1028F00001D32068E0602846226CE168FDF764FCA3
:1029000070BD2DE9F04104460E4615460027206CA7
:1029100040B9206878BB606801F08AF9074600205A
:10292000606028E07DB93146226CA068FDF74CFC60
:10293000216CA0680844A060D4E9011088421AD331
:102940002068A06017E03146226CE068FDF73CFC8F
:10295000216CE068401AE0602168E068884203D298
:10296000216C6068401AE060022D04D1A06B10B1A8
:10297000A06B401EA063A06B401CA0633846BDE85E
:10298000F08110B50446206B00F000FB204600F0FB
:10299000FDFA10BD30B54FF42053174800F007047E
:1029A0002CB1C01D20F00700134C041B1B1B02465A
:1029B000124C22600024114D6C60D018083820F0B1
:1029C00007000F4C206000240D4D2D686C600C4DED
:1029D0002D682C601146441A4C60094C24680C6028
:1029E000084D4C682C60084D4C682C604FF000443A
:1029F000064D2C6030BD0000100200208000002039
:102A000088000020900000208C000020940000200E
:102A100000BFFFF72FFF034800680128F9D900F035
:102A20002FFBF6E7A80000202DE9F04704460F46EB
:102A300015469946DDF82080002607E0B95D04F1CF
:102A400034008155B85D00B902E0761C102EF5D334
:102A500000BF002143200155072D00D30625E56264
:102A6000E56400202065201D00F02FFA04F1180015
:102A700000F02BFA2461C5F10700A0616462002018
:102A8000606584F85800BDE8F087000010B50024A8
:102A900007E004EB84010F4A02EB810000F008FA22
:102AA000641C072CF5D30C4800F002FA0B4800F028
:102AB000FFF90B4800F0FCF90A4800F0F9F90A4860
:102AC00000F0F6F90448094908600448084908601C
:102AD00010BD0000A80000203401002048010020A3
:102AE0005C010020700100208401002034000020DF
:102AF0003800002010B50146164800E00068036861
:102B00008B42FBD30246436813448B4204D1436893
:102B10004C682344436001460A464B6813440468EA
:102B2000A34211D10C4C03682468A34208D04B681F
:102B30000468646823444B6003681B680B6005E00D
:102B4000054B1B680B6001E003680B60884200D0F6
:102B5000016010BD800000208800002070B505468F
:102B600000F0DCF9A86B08B9012400E0002400F0B3
:102B7000F7F9204670BD70B5054600F0CFF9A86B97
:102B8000E96B884201D1012400E0002400F0E8F95B
:102B9000204670BD0A490968096809B9012100E0A9
:102BA000002121B14FF0FF31064A116006E00449CF
:102BB0000968C968C868034A416811607047000025
:102BC000340000206000002007480068401C08B95D
:102BD000012000E0002018B9FDF7D6FA00BFFEE79B
:102BE000FDF7D2FA00BFFEE79800002010B50446BA
:102BF00000F094F911E0606A08B9012000E00020BB
:102C000038B904F1240001F069F818B100F07CFA39
:102C100000E005E0A06C401EA064A06C0028EADC87
:102C200000BF4FF0FF30A06400F09AF900F076F991
:102C300011E0206908B9012000E0002050B904F13A
:102C4000100001F04BF808B100F05EFA606C401E15
:102C5000606400E002E0606C0028EADC00BF4FF036
:102C6000FF30606400F07CF910BD00002DE9F041F8
:102C700004464FF0000800F01FFB3C48006808B90C
:102C8000FFF788FE3A480068204000285DD19CB1DB
:102C9000083404F0070078B104F00700C0F1080020
:102CA000044404F0070008B9012000E0002018B92E
:102CB000FDF76AFA00BFFEE7002C46D02D480068F9
:102CC000844242D82C4E3046056801E02E462D68DD
:102CD0006868A04202D228680028F7D1234800681B
:102CE000854232D0306800F1080828683060686892
:102CF000001B102812D92F1907F0070008B901206E
:102D000000E0002018B9FDF73FFA00BFFEE7686851
:102D1000001B78606C603846FFF7ECFE1549686868
:102D20000968081A134908600846006813490968C9
:102D3000884203D20F480068104908600C4968684F
:102D40000968084368600020286001F00DF808F069
:102D5000070008B9012000E0002018B9FDF714FAB7
:102D600000BFFEE74046BDE8F0810000880000207B
:102D7000940000208C0000208000002090000020A3
:102D80000648006830B10549096801F15000096D35
:102D9000491C0160014800687047000030000020B5
:102DA000001F4FF080730360001F0160001F034B82
:102DB000036014380260203870470000C92B0008F7
:102DC00000BF4FF47A7109480068FFF7AFFC002894
:102DD000F7D107480068FDF71BFA84B22246044881
:102DE00001680448FEF79AFEEBE700007C00002033
:102DF000780000209801002001211348FFF758FCBB
:102E00001249086008460068FFF76CFC0F4800682C
:102E100020B90FA0FFF722FA00BFFEE700BF4FF472
:102E20007A710A480068FFF781FC0028F7D10D4845
:102E30000068FDF7EDF984B222460A4801680A48A5
:102E4000FEF7C0FEEBE70000803E00087C0000209B
:102E500073656D5F75617274206973206E756C6C3B
:102E600021000000740000209801002001460A693A
:102E7000D1E901309860D1E9010358605068884277
:102E800001D188685060002008611068401E106001
:102E90001068704770B504460D4602A0FFF7DEF9D2
:102EA00070BD00006F766572666C6F772100000060
:102EB00000F1080141604FF0FF31816000F108012D
:102EC000C16001610021016070470021016170470C
:102ED00010B502460B685C1C0CB9106907E002F1E2
:102EE000080000E04068446824689C42FAD94468BD
:102EF0004C604C68A160886041600A611468641C81
:102F0000146010BD42684A6093688B609368596092
:102F10009160086103685B1C0360704710B5FDF7A2
:102F200033F90D480068401C0B490860BFF34F8F10
:102F3000BFF36F8F0846006801280BD1074800686F
:102F4000C0B208B9012000E0002018B9FDF71CF953
:102F500000BFFEE710BD00009800002004ED00E077
:102F600010B50948006818B9FDF70EF900BFFEE773
:102F700005480068401E044908600846006810B90A
:102F80000020FDF708F910BD9800002070B5064636
:102F90003546002E31D0083D2C4618496068096836
:102FA000084008B1012000E0002018B9FDF7ECF856
:102FB00000BFFEE7206808B9012000E0002018B932
:102FC000FDF7E2F800BFFEE70C49606809680840B9
:102FD00098B1206888B909496068096888436060C9
:102FE00000F06AF906496068096808440449086005
:102FF0002046FFF77FFD00F0B7FE70BD9400002073
:103000008C000020064800684FF47A71B0FBF1F0A4
:10301000401E4FF0E0214861072008617047000022
:103020000400002070B5FDF7B9F80546102D0FD348
:1030300005F1E02090F8F0430E480078844201DB6F
:10304000012000E0002018B9FDF79EF800BFFEE760
:103050000948006800F4E06008490968884201D81E
:10306000012000E0002018B9FDF78EF800BFFEE750
:1030700070BD00009C0000200CED00E0A0000020CE
:103080004FF0805003490860BFF34F8FBFF36F8F3D
:103090007047000004ED00E070B50446002634B32C
:1030A0001548006808B9012000E0002018B9FDF7B4
:1030B0006BF800BFFEE700F0FFF810480068051944
:1030C0000F480068001DFFF7D1FE50B90C4800689A
:1030D00090F82C10012088400A490968814309486A
:1030E00001602846FFF77AFB00F03EFE06460EB967
:1030F000FFF7C6FF70BD0000640000204400002000
:10310000300000204800002001200149086070477D
:103110005400002070B505460C461DB9FDF734F883
:1031200000BFFEE71348016818312846FFF7D0FEBC
:1031300010480068001DFFF799FE50B90D4800685F
:1031400090F82C10012088400B49096881430A48F7
:103150000160601C30B907480168091D0748FFF786
:10316000D1FE05E00648006806193046FFF736FB39
:1031700070BD0000300000204800002084010020C5
:103180004400002070B505462C46002D4BD0264942
:10319000E06A0968C96A884245D2A06900F0004027
:1031A00028B921480068C06AC0F10700A061E16A3F
:1031B00001EB81011D4A02EB81016069884201D166
:1031C000012000E0002050B3201DFFF74FFE78B92A
:1031D000E06A00EB8000154951F8200040B994F8EE
:1031E0002C10012088401249096881431048016071
:1031F0000D480068C06AE06294F82C1001208840F5
:103200000B49096808430A490860E16A01EB81013A
:10321000064A02EB8100211DFFF774FE03E002481D
:103220000068C06AE06270BD30000020A800002085
:103230004800002010B504461CB9FCF7A5FF00BFEC
:10324000FEE703480068206002480068606010BD27
:1032500058000020440000201FB50020009001907D
:103260000290034680220EA103900F4800F086FBD7
:103270000446012C0DD1FCF787FFA01E0B49086006
:1032800001200B49086000200A49086000F06AF834
:1032900004E01CB9FCF778FF00BFFEE71FBD00008B
:1032A00049444C4500000000112A0008600000203D
:1032B0004C0000204400002002480068401C0149E6
:1032C000086070476400002010B52148006818B1FC
:1032D00001202049086039E000201E4908601E488E
:1032E000006800681C490968096B884205D81A48BB
:1032F000016834310068FFF7CDFD18480068B0FA66
:1033000080F0C0F11F0404EB8400154951F820003F
:1033100008B1012000E0002018B9FCF735FF00BF1C
:10332000FEE704EB84010E4A02EB81004168496824
:10333000416000F1080142688A4202D1416849684F
:1033400041604168C968044A116000BF10BD0000B7
:1033500064000020540000203000002048000020BD
:10336000A80000201CB52248014609780191FF21E0
:10337000024611700146097800919DF8001001F095
:1033800050011C4A117007211B4A116009E01A49BB
:103390000968491E184A11609DF800104906090E77
:1033A00000919DF8001001F080018029EFD01249B2
:1033B00009680902104A11601146098801F4E061A8
:1033C00011600B4A019911700C48006840F47000BC
:1033D0000A4908600846006840F070400860FFF73E
:1033E00011FE002006490860FCF79CFE00201CBD71
:1033F00000E400E09C000020A000002020ED00E0A0
:103400009800002010B5FCF7BFFE00F073FB18B168
:103410004FF08050024908600020FCF7BCFE10BD50
:1034200004ED00E070B505460E460DB1012000E048
:10343000002018B9FCF7A8FE00BFFEE7AE4201D895
:10344000012000E0002018B9FCF79EFE00BFFEE757
:1034500002220021284600F00AF8044604B1A663BF
:103460001CB9FCF791FE00BFFEE7204670BD2DE9B8
:10347000F04706460D4690464FF000090EB1012078
:1034800000E0002018B9FCF77FFE00BFFEE70DB991
:10349000002702E006FB05F0471C07F15400FFF788
:1034A000E5FB044674B10DB9246002E004F1540058
:1034B0002060E66325640121204600F0BAF884F814
:1034C0005080A146B9F1000F03D1FCF75DFE00BFAB
:1034D000FEE74846BDE8F0872DE9FF4383B0054687
:1034E0000E461F464FF000092C461CB9FCF74CFE57
:1034F00000BFFEE70EB9206C08B9012000E00020F3
:1035000018B9FCF741FE00BFFEE700F0D3FA08B996
:10351000059808B9012000E0002018B9FCF734FE36
:1035200000BFFEE700BFFFF7F9FCA06B90B3D4F833
:103530000C8031462046FFF7CFF9B7B9A06B401E8B
:10354000A063206810B9FFF71BFC6060206908B910
:10355000012000E00020B8B904F1100000F0BEFB2B
:10356000012811D1FFF78CFD0EE0C4F80C80606AD1
:1035700008B9012000E0002030B904F1240000F077
:10358000ADFB08B1FFF77CFDFFF7EAFC012007B0B7
:10359000BDE8F083FFE7059818B9FFF7E1FC0020CC
:1035A000F5E7B9F1000F04D101A8FFF743FE4FF092
:1035B0000109FFF7D5FCFFF77FFEFFF7AFFC606C5A
:1035C000401C08B900206064A06C401C08B90020B1
:1035D000A064FFF7C5FC05A901A800F095F908BB98
:1035E0002046FFF7BBFAB8B1206830B9FFF796FC68
:1035F0006068FFF7C7FDFFF7B3FC04F124000599ED
:10360000FFF788FD2046FFF7F1FA00F0ADFB002838
:1036100089D1FFF735FD86E72046FFF7E7FA00F08E
:10362000A3FB80E72046FFF7E1FA00F09DFB0020B6
:10363000ADE770B505460E462C461CB9FCF7A4FD57
:1036400000BFFEE7FFF76AFCD4E90F12206801FB18
:10365000020060600020A0632068A060E06B401E54
:10366000226C216800FB0210E0604FF0FF306064C4
:10367000A06476B9206908B9012000E0002080B973
:1036800004F1100000F02AFB01280AD1FFF7F8FC32
:1036900007E004F11000FFF70BFC04F12400FFF732
:1036A00007FCFFF75DFC012070BD2DE9FF4383B0EF
:1036B000064688461D464FF0000934461CB9FCF703
:1036C00063FD00BFFEE7B8F1000F01D1206C08B91F
:1036D000012000E0002018B9FCF756FD00BFFEE70E
:1036E000022D02D1E06B012801D1012000E0002071
:1036F00018B9FCF749FD00BFFEE700F0DBF908B997
:10370000059808B9012000E0002018B9FCF73CFD3D
:1037100000BFFEE700BFFFF701FCA06BE16B884232
:1037200001D3022D1DD12A4641462046FFF7E9F874
:103730000746606A08B9012000E0002040B904F1A2
:10374000240000F0CBFA012805D1FFF799FC02E034
:103750000FB1FFF795FCFFF703FC012007B0BDE8B0
:10376000F083059818B9FFF7FBFB0020F6E7B9F1E5
:10377000000F04D101A8FFF75DFD4FF00109FFF72D
:10378000EFFBFFF799FDFFF7C9FB606C401C08B920
:1037900000206064A06C401C08B90020A064FFF702
:1037A000DFFB05A901A800F0AFF8C0B92046FFF77C
:1037B000E2F970B104F110000599FFF7ABFC204667
:1037C000FFF714FA00F0D0FA0028A4D1FFF758FC54
:1037D000A1E72046FFF70AFA00F0C6FA9BE7204669
:1037E000FFF704FA00F0C0FA0020B7E72DE9F04136
:1037F00005460E462C461CB9FCF7C6FC00BFFEE78A
:10380000206C08B9012000E0002018B9FCF7BCFCCE
:1038100000BFFEE7206808B9606808B9012000E031
:10382000002018B9FCF7B0FC00BFFEE7FFF7FAFB79
:10383000FCF7AAFC8046A06BE16B884219D2A06B12
:10384000401CA063A06C401C70B9606A08B90120DC
:1038500000E0002058B904F1240000F03FFA30B134
:103860002EB10120306002E0A06C401CA064012752
:1038700000E000274046FCF78EFC3846BDE8F081AA
:103880002DE9F0470546884616462C461CB9FCF73C
:103890007BFC00BFFEE7B8F1000F01D1206C08B936
:1038A000012000E0002018B9FCF76EFC00BFFEE725
:1038B000FFF7B8FBFCF768FC8146A06BE8B1414616
:1038C0002046FFF709F8A06B401EA063606C401C07
:1038D00070B9206908B9012000E0002058B904F14E
:1038E000100000F0FBF930B12EB10120306002E091
:1038F000606C401C6064012700E000274846FCF72C
:103900004AFC3846BDE8F0872DE9F04104460D46F3
:103910001CB9FCF739FC00BFFEE71DB9FCF734FC0D
:1039200000BFFEE7FFF7FAFA124807682868401C54
:1039300008B9002619E0104920680968884204D0B7
:103940006068B84201D801260FE06068381A29681B
:10395000884209D228686168791A401A286020468E
:10396000FFF768FC002600E00126FFF7F9FA304671
:10397000BDE8F08144000020580000202DE9FF4FF1
:1039800081B0804616469A46DDE90E5BB8F1000F1D
:1039900003D1FCF7F9FB00BFFEE7072D01D20120A0
:1039A00000E0002018B9FCF7EFFB00BFFEE730464F
:1039B0001099FEF73DFF0446002C5DD0701E216B70
:1039C00001EB800929F0070909F0070008B9012077
:1039D00000E0002018B9FCF7D7FB00BFFEE7009617
:1039E0002A462046119B0299FFF71EF8524641468F
:1039F0004846FFF7D5F92060BBF1000F01D0CBF8A6
:103A00000040FFF78BFA25480068401C23490860F6
:103A10002348006840B9224804600846006801282D
:103A20000CD1FFF733F809E01E48006830B91C4894
:103A30000068C06AA84201D8194804601A480068A2
:103A4000401C1949086008460068606494F82C100E
:103A50000120884015490968084314490860E16A53
:103A600001EB8101124A02EB8100211DFFF74AFAA6
:103A70000127FFF775FA01E04FF0FF37012F09D159
:103A80000848006830B106480068C06AA84201D200
:103A9000FFF7F6FA384605B0BDE8F08F4000002089
:103AA000300000204C0000205C0000204800002076
:103AB000A80000200549096809B9012005E004496A
:103AC000096809B9022000E0002070474C0000207E
:103AD000640000200149086870470000440000208D
:103AE00070B5FFF79FFA002501480468204670BDB5
:103AF000440000202DE9F0414FF0000841480068E3
:103B0000002872D140480068401C3F4908600846C0
:103B10000668DEB93D480068006808B9012000E089
:103B2000002018B9FCF730FB00BFFEE737480768F4
:103B300037480068354908603548076035480068EF
:103B4000401C34490860FFF725F800BF3248006880
:103B500086423CD300BF2D480068006808B90120A8
:103B600000E0002020B14FF0FF302B4908602DE02D
:103B700026480068C068C4686568AE4202D226481C
:103B8000056023E0201DFFF771F9A06A18B104F168
:103B90001800FFF76BF994F82C10012088401F499A
:103BA000096808431D490860E16A01EB81011C4A6C
:103BB00002EB8100211DFFF7A5F91A49E06A0968A7
:103BC000C96A8842C7D34FF00108C4E700BF15484F
:103BD0000068C06A00EB8000114951F820000128FC
:103BE00008D94FF0010805E0FFE70F480068401CC6
:103BF0000D4908600D48006808B14FF001084046C3
:103C0000BDE8F08164000020440000203400002062
:103C100038000020580000206000002048000020EC
:103C2000A800002030000020500000205400002098
:103C300070B505462C460026002D47D02448006864
:103C4000844201D1012000E0002018B9FCF79CFA61
:103C500000BFFEE7206D18B9FCF796FA00BFFEE73B
:103C6000206D401E2065E16CE06A88422ED0206DF8
:103C700060BB201DFFF7FAF878B9E06A00EB80001E
:103C8000144951F8200040B994F82C1001208840C4
:103C900011490968814310480160E06CE062E06A04
:103CA000C0F10700A06194F82C10012088400A4957
:103CB0000968084308490860E16A01EB8101054A87
:103CC00002EB8100211DFFF71DF90126304670BD72
:103CD00030000020A80000204800002070B50646F3
:103CE000F068C4681CB9FCF74FFA00BFFEE704F1A6
:103CF0001800FFF7BBF816480068A8B9201DFFF7A9
:103D0000B5F894F82C10012088401249096808433E
:103D100010490860E16A01EB81010F4A02EB810062
:103D2000211DFFF7EFF804E004F118010B48FFF73D
:103D3000E9F80B49E06A0968C96A884204D9012593
:103D400001200849086000E00025284670BD0000F9
:103D50006400002048000020A80000205C01002032
:103D6000300000205400002070B500253048006865
:103D700018B9FCF709FA00BFFEE7FFF7CFF82C48A7
:103D80000068401E2A4908600846006800284BD198
:103D900028480068002847D024E02748C068C46845
:103DA00004F11800FFF762F8201DFFF75FF894F8A0
:103DB0002C10012088402149096808431F490860E8
:103DC000E16A01EB81011E4A02EB8100211DFFF730
:103DD00099F81C49E06A0968C96A884202D301203F
:103DE000194908601448006808B9012000E0002063
:103DF0000028D2D01548006878B10AE0FFF77AFEB3
:103E000010B101201049086010480068401E0F4999
:103E100008600E4800680028F0D10B4800680128AF
:103E200002D10125FFF72CF9FFF79AF8284670BD5B
:103E300064000020400000205C01002048000020B9
:103E4000A800002030000020540000205000002076
:103E5000000000000000000001020304060708093A
:103E600000000000010203040020002008001000F0
:103E7000010000200002060028001700200040007A
:103E800000000000383F00086F1C00080000000020
:103E900000000000800000004C3F0008F92D0008E1
:103EA000000000000000000000010000403F00088A
:103EB000C12D00080000000000000000000100000B
:103EC0000A0D2055415254205072696E7466204587
:103ED00078616D706C653A207265746172676574A3
:103EE000207468652043206C696272617279207069
:103EF00072696E74662066756E6374696F6E207485
:103F00006F2074686520554152540A0D000000006E
:103F10007768617420746865206675636B21210081
:103F200068656C6C6F20776F726C64212069206704
:103F30006F742069742100004C454431000000007A
:103F4000756172745F646D61000000007561727468
:103F50005F697400743F000800000020A8000000A2
:103F60007C2200081C400008A8000020682D0000EA
:103F70008C2200080000000000A24A04001001404A
:103F800000140140001401400014014000080140E9
:103F900000100140000C01400044004000140140AA
:103FA00000140140000000000000000000000000BC
:103FB0000000000000000000000000000000000001
:103FC00000000000000000000000000000000000F1
:103FD00000000000000000000000000000000000E1
:103FE0000000000000000000103F0008203F000813
:103FF00000000000000000000000000000000000C1
:10400000000000000000000000000000AAAAAAAA08
:0C401000000000000000000000000000A4
:04000005080000ED02
:00000001FF
